{
  "_format": "hh3-artifact-1",
  "contractName": "AccessToken",
  "sourceName": "contracts/ERC_1155.sol",
  "abi": [
    {
      "inputs": [
        {
          "internalType": "address",
          "name": "contentNFTAddress",
          "type": "address"
        },
        {
          "internalType": "string",
          "name": "baseURI",
          "type": "string"
        },
        {
          "internalType": "uint256",
          "name": "_secondaryFeeBps",
          "type": "uint256"
        }
      ],
      "stateMutability": "nonpayable",
      "type": "constructor"
    },
    {
      "inputs": [],
      "name": "AccessControlBadConfirmation",
      "type": "error"
    },
    {
      "inputs": [
        {
          "internalType": "address",
          "name": "account",
          "type": "address"
        },
        {
          "internalType": "bytes32",
          "name": "neededRole",
          "type": "bytes32"
        }
      ],
      "name": "AccessControlUnauthorizedAccount",
      "type": "error"
    },
    {
      "inputs": [
        {
          "internalType": "address",
          "name": "sender",
          "type": "address"
        },
        {
          "internalType": "uint256",
          "name": "balance",
          "type": "uint256"
        },
        {
          "internalType": "uint256",
          "name": "needed",
          "type": "uint256"
        },
        {
          "internalType": "uint256",
          "name": "tokenId",
          "type": "uint256"
        }
      ],
      "name": "ERC1155InsufficientBalance",
      "type": "error"
    },
    {
      "inputs": [
        {
          "internalType": "address",
          "name": "approver",
          "type": "address"
        }
      ],
      "name": "ERC1155InvalidApprover",
      "type": "error"
    },
    {
      "inputs": [
        {
          "internalType": "uint256",
          "name": "idsLength",
          "type": "uint256"
        },
        {
          "internalType": "uint256",
          "name": "valuesLength",
          "type": "uint256"
        }
      ],
      "name": "ERC1155InvalidArrayLength",
      "type": "error"
    },
    {
      "inputs": [
        {
          "internalType": "address",
          "name": "operator",
          "type": "address"
        }
      ],
      "name": "ERC1155InvalidOperator",
      "type": "error"
    },
    {
      "inputs": [
        {
          "internalType": "address",
          "name": "receiver",
          "type": "address"
        }
      ],
      "name": "ERC1155InvalidReceiver",
      "type": "error"
    },
    {
      "inputs": [
        {
          "internalType": "address",
          "name": "sender",
          "type": "address"
        }
      ],
      "name": "ERC1155InvalidSender",
      "type": "error"
    },
    {
      "inputs": [
        {
          "internalType": "address",
          "name": "operator",
          "type": "address"
        },
        {
          "internalType": "address",
          "name": "owner",
          "type": "address"
        }
      ],
      "name": "ERC1155MissingApprovalForAll",
      "type": "error"
    },
    {
      "inputs": [
        {
          "internalType": "address",
          "name": "seller",
          "type": "address"
        },
        {
          "internalType": "uint256",
          "name": "has",
          "type": "uint256"
        },
        {
          "internalType": "uint256",
          "name": "requested",
          "type": "uint256"
        }
      ],
      "name": "InsufficientBalance",
      "type": "error"
    },
    {
      "inputs": [
        {
          "internalType": "uint256",
          "name": "required",
          "type": "uint256"
        },
        {
          "internalType": "uint256",
          "name": "sent",
          "type": "uint256"
        }
      ],
      "name": "InsufficientPayment",
      "type": "error"
    },
    {
      "inputs": [
        {
          "internalType": "uint256",
          "name": "listingId",
          "type": "uint256"
        }
      ],
      "name": "ListingNotActive",
      "type": "error"
    },
    {
      "inputs": [
        {
          "internalType": "uint256",
          "name": "contentId",
          "type": "uint256"
        }
      ],
      "name": "NotContentOwner",
      "type": "error"
    },
    {
      "inputs": [],
      "name": "ReentrancyGuardReentrantCall",
      "type": "error"
    },
    {
      "inputs": [
        {
          "internalType": "uint256",
          "name": "contentId",
          "type": "uint256"
        }
      ],
      "name": "SoulboundToken",
      "type": "error"
    },
    {
      "inputs": [],
      "name": "WithdrawFailed",
      "type": "error"
    },
    {
      "anonymous": false,
      "inputs": [
        {
          "indexed": true,
          "internalType": "uint256",
          "name": "contentId",
          "type": "uint256"
        },
        {
          "indexed": true,
          "internalType": "address",
          "name": "to",
          "type": "address"
        },
        {
          "indexed": false,
          "internalType": "uint256",
          "name": "amount",
          "type": "uint256"
        }
      ],
      "name": "AccessGranted",
      "type": "event"
    },
    {
      "anonymous": false,
      "inputs": [
        {
          "indexed": true,
          "internalType": "uint256",
          "name": "contentId",
          "type": "uint256"
        },
        {
          "indexed": true,
          "internalType": "address",
          "name": "from",
          "type": "address"
        },
        {
          "indexed": false,
          "internalType": "uint256",
          "name": "amount",
          "type": "uint256"
        }
      ],
      "name": "AccessRevoked",
      "type": "event"
    },
    {
      "anonymous": false,
      "inputs": [
        {
          "indexed": true,
          "internalType": "address",
          "name": "account",
          "type": "address"
        },
        {
          "indexed": true,
          "internalType": "address",
          "name": "operator",
          "type": "address"
        },
        {
          "indexed": false,
          "internalType": "bool",
          "name": "approved",
          "type": "bool"
        }
      ],
      "name": "ApprovalForAll",
      "type": "event"
    },
    {
      "anonymous": false,
      "inputs": [
        {
          "indexed": true,
          "internalType": "uint256",
          "name": "listingId",
          "type": "uint256"
        },
        {
          "indexed": true,
          "internalType": "address",
          "name": "seller",
          "type": "address"
        },
        {
          "indexed": false,
          "internalType": "uint256",
          "name": "contentId",
          "type": "uint256"
        },
        {
          "indexed": false,
          "internalType": "uint256",
          "name": "amount",
          "type": "uint256"
        },
        {
          "indexed": false,
          "internalType": "uint256",
          "name": "price",
          "type": "uint256"
        }
      ],
      "name": "Listed",
      "type": "event"
    },
    {
      "anonymous": false,
      "inputs": [
        {
          "indexed": true,
          "internalType": "uint256",
          "name": "listingId",
          "type": "uint256"
        }
      ],
      "name": "ListingCancelled",
      "type": "event"
    },
    {
      "anonymous": false,
      "inputs": [
        {
          "indexed": true,
          "internalType": "bytes32",
          "name": "role",
          "type": "bytes32"
        },
        {
          "indexed": true,
          "internalType": "bytes32",
          "name": "previousAdminRole",
          "type": "bytes32"
        },
        {
          "indexed": true,
          "internalType": "bytes32",
          "name": "newAdminRole",
          "type": "bytes32"
        }
      ],
      "name": "RoleAdminChanged",
      "type": "event"
    },
    {
      "anonymous": false,
      "inputs": [
        {
          "indexed": true,
          "internalType": "bytes32",
          "name": "role",
          "type": "bytes32"
        },
        {
          "indexed": true,
          "internalType": "address",
          "name": "account",
          "type": "address"
        },
        {
          "indexed": true,
          "internalType": "address",
          "name": "sender",
          "type": "address"
        }
      ],
      "name": "RoleGranted",
      "type": "event"
    },
    {
      "anonymous": false,
      "inputs": [
        {
          "indexed": true,
          "internalType": "bytes32",
          "name": "role",
          "type": "bytes32"
        },
        {
          "indexed": true,
          "internalType": "address",
          "name": "account",
          "type": "address"
        },
        {
          "indexed": true,
          "internalType": "address",
          "name": "sender",
          "type": "address"
        }
      ],
      "name": "RoleRevoked",
      "type": "event"
    },
    {
      "anonymous": false,
      "inputs": [
        {
          "indexed": true,
          "internalType": "uint256",
          "name": "listingId",
          "type": "uint256"
        },
        {
          "indexed": true,
          "internalType": "address",
          "name": "buyer",
          "type": "address"
        },
        {
          "indexed": false,
          "internalType": "uint256",
          "name": "amount",
          "type": "uint256"
        }
      ],
      "name": "Sale",
      "type": "event"
    },
    {
      "anonymous": false,
      "inputs": [
        {
          "indexed": true,
          "internalType": "uint256",
          "name": "contentId",
          "type": "uint256"
        },
        {
          "indexed": false,
          "internalType": "bool",
          "name": "soulbound",
          "type": "bool"
        }
      ],
      "name": "SoulboundSet",
      "type": "event"
    },
    {
      "anonymous": false,
      "inputs": [
        {
          "indexed": true,
          "internalType": "address",
          "name": "operator",
          "type": "address"
        },
        {
          "indexed": true,
          "internalType": "address",
          "name": "from",
          "type": "address"
        },
        {
          "indexed": true,
          "internalType": "address",
          "name": "to",
          "type": "address"
        },
        {
          "indexed": false,
          "internalType": "uint256[]",
          "name": "ids",
          "type": "uint256[]"
        },
        {
          "indexed": false,
          "internalType": "uint256[]",
          "name": "values",
          "type": "uint256[]"
        }
      ],
      "name": "TransferBatch",
      "type": "event"
    },
    {
      "anonymous": false,
      "inputs": [
        {
          "indexed": true,
          "internalType": "address",
          "name": "operator",
          "type": "address"
        },
        {
          "indexed": true,
          "internalType": "address",
          "name": "from",
          "type": "address"
        },
        {
          "indexed": true,
          "internalType": "address",
          "name": "to",
          "type": "address"
        },
        {
          "indexed": false,
          "internalType": "uint256",
          "name": "id",
          "type": "uint256"
        },
        {
          "indexed": false,
          "internalType": "uint256",
          "name": "value",
          "type": "uint256"
        }
      ],
      "name": "TransferSingle",
      "type": "event"
    },
    {
      "anonymous": false,
      "inputs": [
        {
          "indexed": false,
          "internalType": "string",
          "name": "value",
          "type": "string"
        },
        {
          "indexed": true,
          "internalType": "uint256",
          "name": "id",
          "type": "uint256"
        }
      ],
      "name": "URI",
      "type": "event"
    },
    {
      "inputs": [],
      "name": "CONTROLLER_ROLE",
      "outputs": [
        {
          "internalType": "bytes32",
          "name": "",
          "type": "bytes32"
        }
      ],
      "stateMutability": "view",
      "type": "function"
    },
    {
      "inputs": [],
      "name": "DEFAULT_ADMIN_ROLE",
      "outputs": [
        {
          "internalType": "bytes32",
          "name": "",
          "type": "bytes32"
        }
      ],
      "stateMutability": "view",
      "type": "function"
    },
    {
      "inputs": [],
      "name": "PLATFORM_ADMIN",
      "outputs": [
        {
          "internalType": "bytes32",
          "name": "",
          "type": "bytes32"
        }
      ],
      "stateMutability": "view",
      "type": "function"
    },
    {
      "inputs": [
        {
          "internalType": "address",
          "name": "account",
          "type": "address"
        },
        {
          "internalType": "uint256",
          "name": "id",
          "type": "uint256"
        }
      ],
      "name": "balanceOf",
      "outputs": [
        {
          "internalType": "uint256",
          "name": "",
          "type": "uint256"
        }
      ],
      "stateMutability": "view",
      "type": "function"
    },
    {
      "inputs": [
        {
          "internalType": "address[]",
          "name": "accounts",
          "type": "address[]"
        },
        {
          "internalType": "uint256[]",
          "name": "ids",
          "type": "uint256[]"
        }
      ],
      "name": "balanceOfBatch",
      "outputs": [
        {
          "internalType": "uint256[]",
          "name": "",
          "type": "uint256[]"
        }
      ],
      "stateMutability": "view",
      "type": "function"
    },
    {
      "inputs": [
        {
          "internalType": "uint256",
          "name": "listingId",
          "type": "uint256"
        },
        {
          "internalType": "uint256",
          "name": "amount",
          "type": "uint256"
        }
      ],
      "name": "buyAccess",
      "outputs": [],
      "stateMutability": "payable",
      "type": "function"
    },
    {
      "inputs": [
        {
          "internalType": "address",
          "name": "viewer",
          "type": "address"
        },
        {
          "internalType": "uint256",
          "name": "contentId",
          "type": "uint256"
        }
      ],
      "name": "canAccess",
      "outputs": [
        {
          "internalType": "bool",
          "name": "",
          "type": "bool"
        }
      ],
      "stateMutability": "view",
      "type": "function"
    },
    {
      "inputs": [
        {
          "internalType": "uint256",
          "name": "listingId",
          "type": "uint256"
        }
      ],
      "name": "cancelListing",
      "outputs": [],
      "stateMutability": "nonpayable",
      "type": "function"
    },
    {
      "inputs": [],
      "name": "contentNFT",
      "outputs": [
        {
          "internalType": "contract IContentNFT",
          "name": "",
          "type": "address"
        }
      ],
      "stateMutability": "view",
      "type": "function"
    },
    {
      "inputs": [
        {
          "internalType": "uint256",
          "name": "id",
          "type": "uint256"
        }
      ],
      "name": "exists",
      "outputs": [
        {
          "internalType": "bool",
          "name": "",
          "type": "bool"
        }
      ],
      "stateMutability": "view",
      "type": "function"
    },
    {
      "inputs": [
        {
          "internalType": "bytes32",
          "name": "role",
          "type": "bytes32"
        }
      ],
      "name": "getRoleAdmin",
      "outputs": [
        {
          "internalType": "bytes32",
          "name": "",
          "type": "bytes32"
        }
      ],
      "stateMutability": "view",
      "type": "function"
    },
    {
      "inputs": [
        {
          "internalType": "uint256",
          "name": "contentId",
          "type": "uint256"
        },
        {
          "internalType": "address",
          "name": "to",
          "type": "address"
        },
        {
          "internalType": "uint256",
          "name": "amount",
          "type": "uint256"
        }
      ],
      "name": "grantAccess",
      "outputs": [],
      "stateMutability": "nonpayable",
      "type": "function"
    },
    {
      "inputs": [
        {
          "internalType": "bytes32",
          "name": "role",
          "type": "bytes32"
        },
        {
          "internalType": "address",
          "name": "account",
          "type": "address"
        }
      ],
      "name": "grantRole",
      "outputs": [],
      "stateMutability": "nonpayable",
      "type": "function"
    },
    {
      "inputs": [
        {
          "internalType": "bytes32",
          "name": "role",
          "type": "bytes32"
        },
        {
          "internalType": "address",
          "name": "account",
          "type": "address"
        }
      ],
      "name": "hasRole",
      "outputs": [
        {
          "internalType": "bool",
          "name": "",
          "type": "bool"
        }
      ],
      "stateMutability": "view",
      "type": "function"
    },
    {
      "inputs": [
        {
          "internalType": "address",
          "name": "account",
          "type": "address"
        },
        {
          "internalType": "address",
          "name": "operator",
          "type": "address"
        }
      ],
      "name": "isApprovedForAll",
      "outputs": [
        {
          "internalType": "bool",
          "name": "",
          "type": "bool"
        }
      ],
      "stateMutability": "view",
      "type": "function"
    },
    {
      "inputs": [
        {
          "internalType": "uint256",
          "name": "",
          "type": "uint256"
        }
      ],
      "name": "isSoulbound",
      "outputs": [
        {
          "internalType": "bool",
          "name": "",
          "type": "bool"
        }
      ],
      "stateMutability": "view",
      "type": "function"
    },
    {
      "inputs": [
        {
          "internalType": "uint256",
          "name": "contentId",
          "type": "uint256"
        },
        {
          "internalType": "uint256",
          "name": "amount",
          "type": "uint256"
        },
        {
          "internalType": "uint256",
          "name": "pricePerPass",
          "type": "uint256"
        }
      ],
      "name": "listForSale",
      "outputs": [
        {
          "internalType": "uint256",
          "name": "listingId",
          "type": "uint256"
        }
      ],
      "stateMutability": "nonpayable",
      "type": "function"
    },
    {
      "inputs": [
        {
          "internalType": "uint256",
          "name": "",
          "type": "uint256"
        }
      ],
      "name": "listings",
      "outputs": [
        {
          "internalType": "address",
          "name": "seller",
          "type": "address"
        },
        {
          "internalType": "uint256",
          "name": "contentId",
          "type": "uint256"
        },
        {
          "internalType": "uint256",
          "name": "amount",
          "type": "uint256"
        },
        {
          "internalType": "uint256",
          "name": "pricePerPass",
          "type": "uint256"
        },
        {
          "internalType": "bool",
          "name": "active",
          "type": "bool"
        }
      ],
      "stateMutability": "view",
      "type": "function"
    },
    {
      "inputs": [],
      "name": "nextListingId",
      "outputs": [
        {
          "internalType": "uint256",
          "name": "",
          "type": "uint256"
        }
      ],
      "stateMutability": "view",
      "type": "function"
    },
    {
      "inputs": [
        {
          "internalType": "address",
          "name": "",
          "type": "address"
        },
        {
          "internalType": "address",
          "name": "",
          "type": "address"
        },
        {
          "internalType": "uint256[]",
          "name": "",
          "type": "uint256[]"
        },
        {
          "internalType": "uint256[]",
          "name": "",
          "type": "uint256[]"
        },
        {
          "internalType": "bytes",
          "name": "",
          "type": "bytes"
        }
      ],
      "name": "onERC1155BatchReceived",
      "outputs": [
        {
          "internalType": "bytes4",
          "name": "",
          "type": "bytes4"
        }
      ],
      "stateMutability": "nonpayable",
      "type": "function"
    },
    {
      "inputs": [
        {
          "internalType": "address",
          "name": "",
          "type": "address"
        },
        {
          "internalType": "address",
          "name": "",
          "type": "address"
        },
        {
          "internalType": "uint256",
          "name": "",
          "type": "uint256"
        },
        {
          "internalType": "uint256",
          "name": "",
          "type": "uint256"
        },
        {
          "internalType": "bytes",
          "name": "",
          "type": "bytes"
        }
      ],
      "name": "onERC1155Received",
      "outputs": [
        {
          "internalType": "bytes4",
          "name": "",
          "type": "bytes4"
        }
      ],
      "stateMutability": "nonpayable",
      "type": "function"
    },
    {
      "inputs": [
        {
          "internalType": "bytes32",
          "name": "role",
          "type": "bytes32"
        },
        {
          "internalType": "address",
          "name": "callerConfirmation",
          "type": "address"
        }
      ],
      "name": "renounceRole",
      "outputs": [],
      "stateMutability": "nonpayable",
      "type": "function"
    },
    {
      "inputs": [
        {
          "internalType": "uint256",
          "name": "contentId",
          "type": "uint256"
        },
        {
          "internalType": "address",
          "name": "from",
          "type": "address"
        },
        {
          "internalType": "uint256",
          "name": "amount",
          "type": "uint256"
        }
      ],
      "name": "revokeAccess",
      "outputs": [],
      "stateMutability": "nonpayable",
      "type": "function"
    },
    {
      "inputs": [
        {
          "internalType": "bytes32",
          "name": "role",
          "type": "bytes32"
        },
        {
          "internalType": "address",
          "name": "account",
          "type": "address"
        }
      ],
      "name": "revokeRole",
      "outputs": [],
      "stateMutability": "nonpayable",
      "type": "function"
    },
    {
      "inputs": [
        {
          "internalType": "address",
          "name": "from",
          "type": "address"
        },
        {
          "internalType": "address",
          "name": "to",
          "type": "address"
        },
        {
          "internalType": "uint256[]",
          "name": "ids",
          "type": "uint256[]"
        },
        {
          "internalType": "uint256[]",
          "name": "values",
          "type": "uint256[]"
        },
        {
          "internalType": "bytes",
          "name": "data",
          "type": "bytes"
        }
      ],
      "name": "safeBatchTransferFrom",
      "outputs": [],
      "stateMutability": "nonpayable",
      "type": "function"
    },
    {
      "inputs": [
        {
          "internalType": "address",
          "name": "from",
          "type": "address"
        },
        {
          "internalType": "address",
          "name": "to",
          "type": "address"
        },
        {
          "internalType": "uint256",
          "name": "id",
          "type": "uint256"
        },
        {
          "internalType": "uint256",
          "name": "value",
          "type": "uint256"
        },
        {
          "internalType": "bytes",
          "name": "data",
          "type": "bytes"
        }
      ],
      "name": "safeTransferFrom",
      "outputs": [],
      "stateMutability": "nonpayable",
      "type": "function"
    },
    {
      "inputs": [],
      "name": "secondaryFeeBps",
      "outputs": [
        {
          "internalType": "uint256",
          "name": "",
          "type": "uint256"
        }
      ],
      "stateMutability": "view",
      "type": "function"
    },
    {
      "inputs": [
        {
          "internalType": "address",
          "name": "operator",
          "type": "address"
        },
        {
          "internalType": "bool",
          "name": "approved",
          "type": "bool"
        }
      ],
      "name": "setApprovalForAll",
      "outputs": [],
      "stateMutability": "nonpayable",
      "type": "function"
    },
    {
      "inputs": [
        {
          "internalType": "string",
          "name": "newURI",
          "type": "string"
        }
      ],
      "name": "setBaseURI",
      "outputs": [],
      "stateMutability": "nonpayable",
      "type": "function"
    },
    {
      "inputs": [
        {
          "internalType": "uint256",
          "name": "newFeeBps",
          "type": "uint256"
        }
      ],
      "name": "setSecondaryFee",
      "outputs": [],
      "stateMutability": "nonpayable",
      "type": "function"
    },
    {
      "inputs": [
        {
          "internalType": "uint256",
          "name": "contentId",
          "type": "uint256"
        },
        {
          "internalType": "bool",
          "name": "soulbound",
          "type": "bool"
        }
      ],
      "name": "setSoulbound",
      "outputs": [],
      "stateMutability": "nonpayable",
      "type": "function"
    },
    {
      "inputs": [
        {
          "internalType": "bytes4",
          "name": "interfaceId",
          "type": "bytes4"
        }
      ],
      "name": "supportsInterface",
      "outputs": [
        {
          "internalType": "bool",
          "name": "",
          "type": "bool"
        }
      ],
      "stateMutability": "view",
      "type": "function"
    },
    {
      "inputs": [
        {
          "internalType": "uint256",
          "name": "contentId",
          "type": "uint256"
        }
      ],
      "name": "totalAccessActive",
      "outputs": [
        {
          "internalType": "uint256",
          "name": "",
          "type": "uint256"
        }
      ],
      "stateMutability": "view",
      "type": "function"
    },
    {
      "inputs": [
        {
          "internalType": "uint256",
          "name": "contentId",
          "type": "uint256"
        }
      ],
      "name": "totalAccessGranted",
      "outputs": [
        {
          "internalType": "uint256",
          "name": "",
          "type": "uint256"
        }
      ],
      "stateMutability": "view",
      "type": "function"
    },
    {
      "inputs": [],
      "name": "totalSupply",
      "outputs": [
        {
          "internalType": "uint256",
          "name": "",
          "type": "uint256"
        }
      ],
      "stateMutability": "view",
      "type": "function"
    },
    {
      "inputs": [
        {
          "internalType": "uint256",
          "name": "id",
          "type": "uint256"
        }
      ],
      "name": "totalSupply",
      "outputs": [
        {
          "internalType": "uint256",
          "name": "",
          "type": "uint256"
        }
      ],
      "stateMutability": "view",
      "type": "function"
    },
    {
      "inputs": [
        {
          "internalType": "uint256",
          "name": "tokenId",
          "type": "uint256"
        }
      ],
      "name": "uri",
      "outputs": [
        {
          "internalType": "string",
          "name": "",
          "type": "string"
        }
      ],
      "stateMutability": "view",
      "type": "function"
    },
    {
      "inputs": [],
      "name": "withdraw",
      "outputs": [],
      "stateMutability": "nonpayable",
      "type": "function"
    }
  ],
  "bytecode": "0x60a060405234801561000f575f5ffd5b50604051614f2b380380614f2b8339818101604052810190610031919061047d565b81610041816100fd60201b60201c565b50600161006061005561011060201b60201c565b61013960201b60201c565b5f01819055508273ffffffffffffffffffffffffffffffffffffffff1660808173ffffffffffffffffffffffffffffffffffffffff168152505081600690816100a991906106f0565b5080600b819055506100c35f5f1b3361014260201b60201c565b506100f47f4ff52032f36e32ac782042a01802e20394d4255c84a3c046490be98ab632691b3361014260201b60201c565b505050506107bf565b806002908161010c91906106f0565b5050565b5f7f9b779b17422d0df92223018b32b4d1fa46e071723d6817e2486d003becc55f005f1b905090565b5f819050919050565b5f610153838361023860201b60201c565b61022e57600160055f8581526020019081526020015f205f015f8473ffffffffffffffffffffffffffffffffffffffff1673ffffffffffffffffffffffffffffffffffffffff1681526020019081526020015f205f6101000a81548160ff0219169083151502179055506101cb61029c60201b60201c565b73ffffffffffffffffffffffffffffffffffffffff168273ffffffffffffffffffffffffffffffffffffffff16847f2f8788117e7eff1d82e926ec794901d17c78024a50270940304540a733656f0d60405160405180910390a460019050610232565b5f90505b92915050565b5f60055f8481526020019081526020015f205f015f8373ffffffffffffffffffffffffffffffffffffffff1673ffffffffffffffffffffffffffffffffffffffff1681526020019081526020015f205f9054906101000a900460ff16905092915050565b5f33905090565b5f604051905090565b5f5ffd5b5f5ffd5b5f73ffffffffffffffffffffffffffffffffffffffff82169050919050565b5f6102dd826102b4565b9050919050565b6102ed816102d3565b81146102f7575f5ffd5b50565b5f81519050610308816102e4565b92915050565b5f5ffd5b5f5ffd5b5f601f19601f8301169050919050565b7f4e487b71000000000000000000000000000000000000000000000000000000005f52604160045260245ffd5b61035c82610316565b810181811067ffffffffffffffff8211171561037b5761037a610326565b5b80604052505050565b5f61038d6102a3565b90506103998282610353565b919050565b5f67ffffffffffffffff8211156103b8576103b7610326565b5b6103c182610316565b9050602081019050919050565b8281835e5f83830152505050565b5f6103ee6103e98461039e565b610384565b90508281526020810184848401111561040a57610409610312565b5b6104158482856103ce565b509392505050565b5f82601f8301126104315761043061030e565b5b81516104418482602086016103dc565b91505092915050565b5f819050919050565b61045c8161044a565b8114610466575f5ffd5b50565b5f8151905061047781610453565b92915050565b5f5f5f60608486031215610494576104936102ac565b5b5f6104a1868287016102fa565b935050602084015167ffffffffffffffff8111156104c2576104c16102b0565b5b6104ce8682870161041d565b92505060406104df86828701610469565b9150509250925092565b5f81519050919050565b7f4e487b71000000000000000000000000000000000000000000000000000000005f52602260045260245ffd5b5f600282049050600182168061053757607f821691505b60208210810361054a576105496104f3565b5b50919050565b5f819050815f5260205f209050919050565b5f6020601f8301049050919050565b5f82821b905092915050565b5f600883026105ac7fffffffffffffffffffffffffffffffffffffffffffffffffffffffffffffffff82610571565b6105b68683610571565b95508019841693508086168417925050509392505050565b5f819050919050565b5f6105f16105ec6105e78461044a565b6105ce565b61044a565b9050919050565b5f819050919050565b61060a836105d7565b61061e610616826105f8565b84845461057d565b825550505050565b5f5f905090565b610635610626565b610640818484610601565b505050565b5b81811015610663576106585f8261062d565b600181019050610646565b5050565b601f8211156106a85761067981610550565b61068284610562565b81016020851015610691578190505b6106a561069d85610562565b830182610645565b50505b505050565b5f82821c905092915050565b5f6106c85f19846008026106ad565b1980831691505092915050565b5f6106e083836106b9565b9150826002028217905092915050565b6106f9826104e9565b67ffffffffffffffff81111561071257610711610326565b5b61071c8254610520565b610727828285610667565b5f60209050601f831160018114610758575f8415610746578287015190505b61075085826106d5565b8655506107b7565b601f19841661076686610550565b5f5b8281101561078d57848901518255600182019150602085019450602081019050610768565b868310156107aa57848901516107a6601f8916826106b9565b8355505b6001600288020188555050505b505050505050565b60805161474d6107de5f395f8181610abf0152611349015261474d5ff3fe608060405260043610610223575f3560e01c80636124a5a811610122578063be998e1b116100aa578063de74e57b1161006e578063de74e57b14610843578063e985e9c514610883578063ee3c65d5146108bf578063f23a6e61146108fb578063f242432a1461093757610223565b8063be998e1b14610751578063c1d0a7d81461078d578063c61fffec146107b7578063d547741f146107f3578063d603b2841461081b57610223565b8063a217fddf116100f1578063a217fddf1461065d578063a22cb46514610687578063aaccf1ec146106af578063bc197c81146106d9578063bd85b0391461071557610223565b80636124a5a814610593578063911ec470146105bd57806391d14854146105f9578063966d964b1461063557610223565b80632eb2c2d6116101b05780634e1273f4116101745780634e1273f41461048f5780634e9df76c146104cb5780634f558e7914610507578063504ea3351461054357806355f804b31461056b57610223565b80632eb2c2d6146103d95780632f2ff15d14610401578063305a67a81461042957806336568abe146104515780633ccfd60b1461047957610223565b80630f54a822116101f75780630f54a8221461030557806318160ddd1461032d578063248a9ca31461035757806328aef969146103935780632cdc2534146103bd57610223565b8062fdd58e1461022757806301ffc9a714610263578063092c5b3b1461029f5780630e89341c146102c9575b5f5ffd5b348015610232575f5ffd5b5061024d600480360381019061024891906131a9565b61095f565b60405161025a91906131f6565b60405180910390f35b34801561026e575f5ffd5b5061028960048036038101906102849190613264565b6109b4565b60405161029691906132a9565b60405180910390f35b3480156102aa575f5ffd5b506102b36109c5565b6040516102c091906132da565b60405180910390f35b3480156102d4575f5ffd5b506102ef60048036038101906102ea91906132f3565b6109e9565b6040516102fc919061338e565b60405180910390f35b348015610310575f5ffd5b5061032b600480360381019061032691906132f3565b610a1d565b005b348015610338575f5ffd5b50610341610a97565b60405161034e91906131f6565b60405180910390f35b348015610362575f5ffd5b5061037d600480360381019061037891906133d8565b610aa0565b60405161038a91906132da565b60405180910390f35b34801561039e575f5ffd5b506103a7610abd565b6040516103b4919061345e565b60405180910390f35b6103d760048036038101906103d29190613477565b610ae1565b005b3480156103e4575f5ffd5b506103ff60048036038101906103fa91906136a5565b610db1565b005b34801561040c575f5ffd5b5061042760048036038101906104229190613770565b610dd6565b005b348015610434575f5ffd5b5061044f600480360381019061044a91906132f3565b610df8565b005b34801561045c575f5ffd5b5061047760048036038101906104729190613770565b610f6d565b005b348015610484575f5ffd5b5061048d610fe8565b005b34801561049a575f5ffd5b506104b560048036038101906104b0919061386e565b6110a7565b6040516104c2919061399b565b60405180910390f35b3480156104d6575f5ffd5b506104f160048036038101906104ec91906132f3565b6111b1565b6040516104fe91906131f6565b60405180910390f35b348015610512575f5ffd5b5061052d600480360381019061052891906132f3565b6111cb565b60405161053a91906132a9565b60405180910390f35b34801561054e575f5ffd5b50610569600480360381019061056491906139bb565b6111de565b005b348015610576575f5ffd5b50610591600480360381019061058c9190613a64565b611268565b005b34801561059e575f5ffd5b506105a76112a9565b6040516105b491906131f6565b60405180910390f35b3480156105c8575f5ffd5b506105e360048036038101906105de91906132f3565b6112af565b6040516105f091906132a9565b60405180910390f35b348015610604575f5ffd5b5061061f600480360381019061061a9190613770565b6112cc565b60405161062c91906132a9565b60405180910390f35b348015610640575f5ffd5b5061065b60048036038101906106569190613ad9565b611330565b005b348015610668575f5ffd5b5061067161149b565b60405161067e91906132da565b60405180910390f35b348015610692575f5ffd5b506106ad60048036038101906106a89190613b17565b6114a1565b005b3480156106ba575f5ffd5b506106c36114b7565b6040516106d091906131f6565b60405180910390f35b3480156106e4575f5ffd5b506106ff60048036038101906106fa91906136a5565b6114bd565b60405161070c9190613b64565b60405180910390f35b348015610720575f5ffd5b5061073b600480360381019061073691906132f3565b6114d1565b60405161074891906131f6565b60405180910390f35b34801561075c575f5ffd5b50610777600480360381019061077291906132f3565b6114eb565b60405161078491906131f6565b60405180910390f35b348015610798575f5ffd5b506107a16114fc565b6040516107ae91906132da565b60405180910390f35b3480156107c2575f5ffd5b506107dd60048036038101906107d891906131a9565b611520565b6040516107ea91906132a9565b60405180910390f35b3480156107fe575f5ffd5b5061081960048036038101906108149190613770565b611535565b005b348015610826575f5ffd5b50610841600480360381019061083c91906139bb565b611557565b005b34801561084e575f5ffd5b50610869600480360381019061086491906132f3565b611617565b60405161087a959493929190613b8c565b60405180910390f35b34801561088e575f5ffd5b506108a960048036038101906108a49190613bdd565b611674565b6040516108b691906132a9565b60405180910390f35b3480156108ca575f5ffd5b506108e560048036038101906108e09190613c1b565b611702565b6040516108f291906131f6565b60405180910390f35b348015610906575f5ffd5b50610921600480360381019061091c9190613c6b565b61192c565b60405161092e9190613b64565b60405180910390f35b348015610942575f5ffd5b5061095d60048036038101906109589190613c6b565b611940565b005b5f5f5f8381526020019081526020015f205f8473ffffffffffffffffffffffffffffffffffffffff1673ffffffffffffffffffffffffffffffffffffffff1681526020019081526020015f2054905092915050565b5f6109be82611965565b9050919050565b7f7b765e0e932d348852a6f810bfa1ab891e259123f02db8cdcde614c57022335781565b606060066109f6836119de565b604051602001610a07929190613e71565b6040516020818303038152906040529050919050565b7f4ff52032f36e32ac782042a01802e20394d4255c84a3c046490be98ab632691b610a4781611aa8565b6103e8821115610a8c576040517f08c379a0000000000000000000000000000000000000000000000000000000008152600401610a8390613ee9565b60405180910390fd5b81600b819055505050565b5f600454905090565b5f60055f8381526020019081526020015f20600101549050919050565b7f000000000000000000000000000000000000000000000000000000000000000081565b610ae9611abc565b5f60095f8481526020019081526020015f209050806004015f9054906101000a900460ff16610b4f57826040517f378a93c0000000000000000000000000000000000000000000000000000000008152600401610b4691906131f6565b60405180910390fd5b8060020154821115610ba057308160020154836040517fdb42144d000000000000000000000000000000000000000000000000000000008152600401610b9793929190613f07565b60405180910390fd5b5f828260030154610bb19190613f69565b905080341015610bfa5780346040517fb99e2ab7000000000000000000000000000000000000000000000000000000008152600401610bf1929190613faa565b60405180910390fd5b82826002015f828254610c0d9190613fd1565b925050819055505f826002015403610c3b575f826004015f6101000a81548160ff0219169083151502179055505b5f612710600b5483610c4d9190613f69565b610c579190614031565b90505f8183610c669190613fd1565b90505f845f015f9054906101000a900473ffffffffffffffffffffffffffffffffffffffff1673ffffffffffffffffffffffffffffffffffffffff1682604051610caf9061408e565b5f6040518083038185875af1925050503d805f8114610ce9576040519150601f19603f3d011682016040523d82523d5f602084013e610cee565b606091505b5050905080610d32576040517f08c379a0000000000000000000000000000000000000000000000000000000008152600401610d29906140ec565b60405180910390fd5b610d51303387600101548960405180602001604052805f815250611ade565b3373ffffffffffffffffffffffffffffffffffffffff16877fc0e076a004e59b819c1099b4799386d7feaa928662e5f3f95af4db1a1502520d88604051610d9891906131f6565b60405180910390a35050505050610dad611be5565b5050565b610dc2610dbc611bff565b86611c06565b610dcf8585858585611c91565b5050505050565b610ddf82610aa0565b610de881611aa8565b610df28383611d87565b50505050565b610e00611abc565b5f60095f8381526020019081526020015f209050806004015f9054906101000a900460ff16610e6657816040517f378a93c0000000000000000000000000000000000000000000000000000000008152600401610e5d91906131f6565b60405180910390fd5b3373ffffffffffffffffffffffffffffffffffffffff16815f015f9054906101000a900473ffffffffffffffffffffffffffffffffffffffff1673ffffffffffffffffffffffffffffffffffffffff1614610ef6576040517f08c379a0000000000000000000000000000000000000000000000000000000008152600401610eed90614154565b60405180910390fd5b5f816004015f6101000a81548160ff021916908315150217905550610f3430338360010154846002015460405180602001604052805f815250611ade565b817f411aee90354c51b1b04cd563fcab2617142a9d50da19232d888547c8a1b7fd8a60405160405180910390a250610f6a611be5565b50565b610f75611bff565b73ffffffffffffffffffffffffffffffffffffffff168173ffffffffffffffffffffffffffffffffffffffff1614610fd9576040517f6697b23200000000000000000000000000000000000000000000000000000000815260040160405180910390fd5b610fe38282611e71565b505050565b5f5f1b610ff481611aa8565b610ffc611abc565b5f3373ffffffffffffffffffffffffffffffffffffffff16476040516110219061408e565b5f6040518083038185875af1925050503d805f811461105b576040519150601f19603f3d011682016040523d82523d5f602084013e611060565b606091505b505090508061109b576040517f750b219c00000000000000000000000000000000000000000000000000000000815260040160405180910390fd5b506110a4611be5565b50565b606081518351146110f357815183516040517f5b0599910000000000000000000000000000000000000000000000000000000081526004016110ea929190613faa565b60405180910390fd5b5f835167ffffffffffffffff81111561110f5761110e6134b9565b5b60405190808252806020026020018201604052801561113d5781602001602082028036833780820191505090505b5090505f5f90505b84518110156111a65761117c6111648287611f5b90919063ffffffff16565b6111778387611f6e90919063ffffffff16565b61095f565b82828151811061118f5761118e614172565b5b602002602001018181525050806001019050611145565b508091505092915050565b5f60075f8381526020019081526020015f20549050919050565b5f5f6111d6836114d1565b119050919050565b7f7b765e0e932d348852a6f810bfa1ab891e259123f02db8cdcde614c57022335761120881611aa8565b611213838584611f81565b8273ffffffffffffffffffffffffffffffffffffffff16847f0de8b5705f103f4c8b38502a68ff29288ee6251cb54c4b316a5d8b472a11764d8460405161125a91906131f6565b60405180910390a350505050565b7f4ff52032f36e32ac782042a01802e20394d4255c84a3c046490be98ab632691b61129281611aa8565b8282600691826112a392919061432e565b50505050565b600b5481565b6008602052805f5260405f205f915054906101000a900460ff1681565b5f60055f8481526020019081526020015f205f015f8373ffffffffffffffffffffffffffffffffffffffff1673ffffffffffffffffffffffffffffffffffffffff1681526020019081526020015f205f9054906101000a900460ff16905092915050565b3373ffffffffffffffffffffffffffffffffffffffff167f000000000000000000000000000000000000000000000000000000000000000073ffffffffffffffffffffffffffffffffffffffff16636352211e846040518263ffffffff1660e01b81526004016113a091906131f6565b602060405180830381865afa1580156113bb573d5f5f3e3d5ffd5b505050506040513d601f19601f820116820180604052508101906113df919061440f565b73ffffffffffffffffffffffffffffffffffffffff161461143757816040517f20a039f300000000000000000000000000000000000000000000000000000000815260040161142e91906131f6565b60405180910390fd5b8060085f8481526020019081526020015f205f6101000a81548160ff021916908315150217905550817f0e120502a1f6b15b81c44ae66ebdafc3930e5d42fb3d99adadca6a65321aca4a8260405161148f91906132a9565b60405180910390a25050565b5f5f1b81565b6114b36114ac611bff565b8383612024565b5050565b600a5481565b5f63bc197c8160e01b905095945050505050565b5f60035f8381526020019081526020015f20549050919050565b5f6114f5826114d1565b9050919050565b7f4ff52032f36e32ac782042a01802e20394d4255c84a3c046490be98ab632691b81565b5f5f61152c848461095f565b11905092915050565b61153e82610aa0565b61154781611aa8565b6115518383611e71565b50505050565b7f7b765e0e932d348852a6f810bfa1ab891e259123f02db8cdcde614c57022335761158181611aa8565b61159b83858460405180602001604052805f8152506121fd565b8160075f8681526020019081526020015f205f8282546115bb919061443a565b925050819055508273ffffffffffffffffffffffffffffffffffffffff16847fc56e8aa8e9f4284830fd4657bc77d60640af2ec679f2099faf320ee4202ff4228460405161160991906131f6565b60405180910390a350505050565b6009602052805f5260405f205f91509050805f015f9054906101000a900473ffffffffffffffffffffffffffffffffffffffff1690806001015490806002015490806003015490806004015f9054906101000a900460ff16905085565b5f60015f8473ffffffffffffffffffffffffffffffffffffffff1673ffffffffffffffffffffffffffffffffffffffff1681526020019081526020015f205f8373ffffffffffffffffffffffffffffffffffffffff1673ffffffffffffffffffffffffffffffffffffffff1681526020019081526020015f205f9054906101000a900460ff16905092915050565b5f61170b611abc565b60085f8581526020019081526020015f205f9054906101000a900460ff161561176b57836040517f60a262a500000000000000000000000000000000000000000000000000000000815260040161176291906131f6565b60405180910390fd5b5f611776338661095f565b9050838110156117c1573381856040517fdb42144d0000000000000000000000000000000000000000000000000000000081526004016117b893929190613f07565b60405180910390fd5b6117dc3330878760405180602001604052805f815250611940565b600a5f8154809291906117ee9061446d565b9190505591506040518060a001604052803373ffffffffffffffffffffffffffffffffffffffff1681526020018681526020018581526020018481526020016001151581525060095f8481526020019081526020015f205f820151815f015f6101000a81548173ffffffffffffffffffffffffffffffffffffffff021916908373ffffffffffffffffffffffffffffffffffffffff1602179055506020820151816001015560408201518160020155606082015181600301556080820151816004015f6101000a81548160ff0219169083151502179055509050503373ffffffffffffffffffffffffffffffffffffffff16827fd0e2632082726e989c9a9cac6d495b05080e0d6836ee21e07618b32d5719a404878787604051611914939291906144b4565b60405180910390a350611925611be5565b9392505050565b5f63f23a6e6160e01b905095945050505050565b61195161194b611bff565b86611c06565b61195e8585858585611ade565b5050505050565b5f7f4e2312e0000000000000000000000000000000000000000000000000000000007bffffffffffffffffffffffffffffffffffffffffffffffffffffffff1916827bffffffffffffffffffffffffffffffffffffffffffffffffffffffff191614806119d757506119d682612293565b5b9050919050565b60605f60016119ec8461230c565b0190505f8167ffffffffffffffff811115611a0a57611a096134b9565b5b6040519080825280601f01601f191660200182016040528015611a3c5781602001600182028036833780820191505090505b5090505f82602083010190505b600115611a9d578080600190039150507f3031323334353637383961626364656600000000000000000000000000000000600a86061a8153600a8581611a9257611a91614004565b5b0494505f8503611a49575b819350505050919050565b611ab981611ab4611bff565b61245d565b50565b611ac46124ae565b6002611ad6611ad16124ef565b612518565b5f0181905550565b5f73ffffffffffffffffffffffffffffffffffffffff168473ffffffffffffffffffffffffffffffffffffffff1603611b4e575f6040517f57f447ce000000000000000000000000000000000000000000000000000000008152600401611b4591906144e9565b60405180910390fd5b5f73ffffffffffffffffffffffffffffffffffffffff168573ffffffffffffffffffffffffffffffffffffffff1603611bbe575f6040517f01a83514000000000000000000000000000000000000000000000000000000008152600401611bb591906144e9565b60405180910390fd5b5f5f611bca8585612521565b91509150611bdc87878484875f612551565b50505050505050565b6001611bf7611bf26124ef565b612518565b5f0181905550565b5f33905090565b8173ffffffffffffffffffffffffffffffffffffffff168173ffffffffffffffffffffffffffffffffffffffff1614158015611c495750611c478183611674565b155b15611c8d5781816040517fe237d922000000000000000000000000000000000000000000000000000000008152600401611c84929190614502565b60405180910390fd5b5050565b5f73ffffffffffffffffffffffffffffffffffffffff168473ffffffffffffffffffffffffffffffffffffffff1603611d01575f6040517f57f447ce000000000000000000000000000000000000000000000000000000008152600401611cf891906144e9565b60405180910390fd5b5f73ffffffffffffffffffffffffffffffffffffffff168573ffffffffffffffffffffffffffffffffffffffff1603611d71575f6040517f01a83514000000000000000000000000000000000000000000000000000000008152600401611d6891906144e9565b60405180910390fd5b611d8085858585856001612551565b5050505050565b5f611d9283836112cc565b611e6757600160055f8581526020019081526020015f205f015f8473ffffffffffffffffffffffffffffffffffffffff1673ffffffffffffffffffffffffffffffffffffffff1681526020019081526020015f205f6101000a81548160ff021916908315150217905550611e04611bff565b73ffffffffffffffffffffffffffffffffffffffff168273ffffffffffffffffffffffffffffffffffffffff16847f2f8788117e7eff1d82e926ec794901d17c78024a50270940304540a733656f0d60405160405180910390a460019050611e6b565b5f90505b92915050565b5f611e7c83836112cc565b15611f51575f60055f8581526020019081526020015f205f015f8473ffffffffffffffffffffffffffffffffffffffff1673ffffffffffffffffffffffffffffffffffffffff1681526020019081526020015f205f6101000a81548160ff021916908315150217905550611eee611bff565b73ffffffffffffffffffffffffffffffffffffffff168273ffffffffffffffffffffffffffffffffffffffff16847ff6391f5c32d9c69d2a47ea670b442974b53935d1edc7fd64eb21e047a839171b60405160405180910390a460019050611f55565b5f90505b92915050565b5f60208202602084010151905092915050565b5f60208202602084010151905092915050565b5f73ffffffffffffffffffffffffffffffffffffffff168373ffffffffffffffffffffffffffffffffffffffff1603611ff1575f6040517f01a83514000000000000000000000000000000000000000000000000000000008152600401611fe891906144e9565b60405180910390fd5b5f5f611ffd8484612521565b9150915061201d855f848460405180602001604052805f8152505f612551565b5050505050565b5f73ffffffffffffffffffffffffffffffffffffffff168373ffffffffffffffffffffffffffffffffffffffff1603612094575f6040517f3e31884e00000000000000000000000000000000000000000000000000000000815260040161208b91906144e9565b60405180910390fd5b5f73ffffffffffffffffffffffffffffffffffffffff168273ffffffffffffffffffffffffffffffffffffffff1603612104575f6040517fced3e1000000000000000000000000000000000000000000000000000000000081526004016120fb91906144e9565b60405180910390fd5b8060015f8573ffffffffffffffffffffffffffffffffffffffff1673ffffffffffffffffffffffffffffffffffffffff1681526020019081526020015f205f8473ffffffffffffffffffffffffffffffffffffffff1673ffffffffffffffffffffffffffffffffffffffff1681526020019081526020015f205f6101000a81548160ff0219169083151502179055508173ffffffffffffffffffffffffffffffffffffffff168373ffffffffffffffffffffffffffffffffffffffff167f17307eab39ab6107e8899845ad3d59bd9653f200f220920489ca2b5937696c31836040516121f091906132a9565b60405180910390a3505050565b5f73ffffffffffffffffffffffffffffffffffffffff168473ffffffffffffffffffffffffffffffffffffffff160361226d575f6040517f57f447ce00000000000000000000000000000000000000000000000000000000815260040161226491906144e9565b60405180910390fd5b5f5f6122798585612521565b9150915061228b5f878484875f612551565b505050505050565b5f7f7965db0b000000000000000000000000000000000000000000000000000000007bffffffffffffffffffffffffffffffffffffffffffffffffffffffff1916827bffffffffffffffffffffffffffffffffffffffffffffffffffffffff191614806123055750612304826125fb565b5b9050919050565b5f5f5f90507a184f03e93ff9f4daa797ed6e38ed64bf6a1f0100000000000000008310612368577a184f03e93ff9f4daa797ed6e38ed64bf6a1f010000000000000000838161235e5761235d614004565b5b0492506040810190505b6d04ee2d6d415b85acef810000000083106123a5576d04ee2d6d415b85acef8100000000838161239b5761239a614004565b5b0492506020810190505b662386f26fc1000083106123d457662386f26fc1000083816123ca576123c9614004565b5b0492506010810190505b6305f5e10083106123fd576305f5e10083816123f3576123f2614004565b5b0492506008810190505b612710831061242257612710838161241857612417614004565b5b0492506004810190505b60648310612445576064838161243b5761243a614004565b5b0492506002810190505b600a8310612454576001810190505b80915050919050565b61246782826112cc565b6124aa5780826040517fe2517d3f0000000000000000000000000000000000000000000000000000000081526004016124a1929190614529565b60405180910390fd5b5050565b6124b66126dc565b156124ed576040517f3ee5aeb500000000000000000000000000000000000000000000000000000000815260040160405180910390fd5b565b5f7f9b779b17422d0df92223018b32b4d1fa46e071723d6817e2486d003becc55f005f1b905090565b5f819050919050565b60608060405191506001825283602083015260408201905060018152826020820152604081016040529250929050565b61255d868686866126f8565b5f73ffffffffffffffffffffffffffffffffffffffff168573ffffffffffffffffffffffffffffffffffffffff16146125f3575f612599611bff565b905081156125b4576125af818888888888612828565b6125f1565b5f6125c85f87611f6e90919063ffffffff16565b90505f6125de5f87611f6e90919063ffffffff16565b90506125ee838a8a85858a6129d7565b50505b505b505050505050565b5f7fd9b67a26000000000000000000000000000000000000000000000000000000007bffffffffffffffffffffffffffffffffffffffffffffffffffffffff1916827bffffffffffffffffffffffffffffffffffffffffffffffffffffffff191614806126c557507f0e89341c000000000000000000000000000000000000000000000000000000007bffffffffffffffffffffffffffffffffffffffffffffffffffffffff1916827bffffffffffffffffffffffffffffffffffffffffffffffffffffffff1916145b806126d557506126d482612b86565b5b9050919050565b5f60026126ef6126ea6124ef565b612518565b5f015414905090565b5f73ffffffffffffffffffffffffffffffffffffffff168473ffffffffffffffffffffffffffffffffffffffff161415801561276057505f73ffffffffffffffffffffffffffffffffffffffff168373ffffffffffffffffffffffffffffffffffffffff1614155b15612816575f5f90505b82518110156128145760085f84838151811061278957612788614172565b5b602002602001015181526020019081526020015f205f9054906101000a900460ff1615612807578281815181106127c3576127c2614172565b5b60200260200101516040517f60a262a50000000000000000000000000000000000000000000000000000000081526004016127fe91906131f6565b60405180910390fd5b808060010191505061276a565b505b61282284848484612bef565b50505050565b5f8473ffffffffffffffffffffffffffffffffffffffff163b11156129cf578373ffffffffffffffffffffffffffffffffffffffff1663bc197c8187878686866040518663ffffffff1660e01b81526004016128889594939291906145a2565b6020604051808303815f875af19250505080156128c357506040513d601f19601f820116820180604052508101906128c0919061461c565b60015b612944573d805f81146128f1576040519150601f19603f3d011682016040523d82523d5f602084013e6128f6565b606091505b505f81510361293c57846040517f57f447ce00000000000000000000000000000000000000000000000000000000815260040161293391906144e9565b60405180910390fd5b805160208201fd5b63bc197c8160e01b7bffffffffffffffffffffffffffffffffffffffffffffffffffffffff1916817bffffffffffffffffffffffffffffffffffffffffffffffffffffffff1916146129cd57846040517f57f447ce0000000000000000000000000000000000000000000000000000000081526004016129c491906144e9565b60405180910390fd5b505b505050505050565b5f8473ffffffffffffffffffffffffffffffffffffffff163b1115612b7e578373ffffffffffffffffffffffffffffffffffffffff1663f23a6e6187878686866040518663ffffffff1660e01b8152600401612a37959493929190614647565b6020604051808303815f875af1925050508015612a7257506040513d601f19601f82011682018060405250810190612a6f919061461c565b60015b612af3573d805f8114612aa0576040519150601f19603f3d011682016040523d82523d5f602084013e612aa5565b606091505b505f815103612aeb57846040517f57f447ce000000000000000000000000000000000000000000000000000000008152600401612ae291906144e9565b60405180910390fd5b805160208201fd5b63f23a6e6160e01b7bffffffffffffffffffffffffffffffffffffffffffffffffffffffff1916817bffffffffffffffffffffffffffffffffffffffffffffffffffffffff191614612b7c57846040517f57f447ce000000000000000000000000000000000000000000000000000000008152600401612b7391906144e9565b60405180910390fd5b505b505050505050565b5f7f01ffc9a7000000000000000000000000000000000000000000000000000000007bffffffffffffffffffffffffffffffffffffffffffffffffffffffff1916827bffffffffffffffffffffffffffffffffffffffffffffffffffffffff1916149050919050565b612bfb84848484612d78565b5f73ffffffffffffffffffffffffffffffffffffffff168473ffffffffffffffffffffffffffffffffffffffff1603612cc4575f5f90505f5f90505b8351811015612ca9575f612c548285611f6e90919063ffffffff16565b90508060035f612c6d8589611f6e90919063ffffffff16565b81526020019081526020015f205f828254612c88919061443a565b925050819055508083612c9b919061443a565b925050806001019050612c37565b508060045f828254612cbb919061443a565b92505081905550505b5f73ffffffffffffffffffffffffffffffffffffffff168373ffffffffffffffffffffffffffffffffffffffff1603612d72575f5f90505f5f90505b8351811015612d60575f612d1d8285611f6e90919063ffffffff16565b90508060035f612d368589611f6e90919063ffffffff16565b81526020019081526020015f205f8282540392505081905550808301925050806001019050612d00565b508060045f8282540392505081905550505b50505050565b8051825114612dc257815181516040517f5b059991000000000000000000000000000000000000000000000000000000008152600401612db9929190613faa565b60405180910390fd5b5f612dcb611bff565b90505f5f90505b8351811015612fca575f612def8286611f6e90919063ffffffff16565b90505f612e058386611f6e90919063ffffffff16565b90505f73ffffffffffffffffffffffffffffffffffffffff168873ffffffffffffffffffffffffffffffffffffffff1614612f28575f5f5f8481526020019081526020015f205f8a73ffffffffffffffffffffffffffffffffffffffff1673ffffffffffffffffffffffffffffffffffffffff1681526020019081526020015f2054905081811015612ed457888183856040517f03dee4c5000000000000000000000000000000000000000000000000000000008152600401612ecb949392919061469f565b60405180910390fd5b8181035f5f8581526020019081526020015f205f8b73ffffffffffffffffffffffffffffffffffffffff1673ffffffffffffffffffffffffffffffffffffffff1681526020019081526020015f2081905550505b5f73ffffffffffffffffffffffffffffffffffffffff168773ffffffffffffffffffffffffffffffffffffffff1614612fbd57805f5f8481526020019081526020015f205f8973ffffffffffffffffffffffffffffffffffffffff1673ffffffffffffffffffffffffffffffffffffffff1681526020019081526020015f205f828254612fb5919061443a565b925050819055505b5050806001019050612dd2565b506001835103613085575f612fe85f85611f6e90919063ffffffff16565b90505f612ffe5f85611f6e90919063ffffffff16565b90508573ffffffffffffffffffffffffffffffffffffffff168773ffffffffffffffffffffffffffffffffffffffff168473ffffffffffffffffffffffffffffffffffffffff167fc3d58168c5ae7397731d063d5bbf3d657854427343f4c083240f7aacaa2d0f628585604051613076929190613faa565b60405180910390a45050613104565b8373ffffffffffffffffffffffffffffffffffffffff168573ffffffffffffffffffffffffffffffffffffffff168273ffffffffffffffffffffffffffffffffffffffff167f4a39dc06d4c0dbc64b70af90fd698a233a518aa5d07e595d983b8c0526c8f7fb86866040516130fb9291906146e2565b60405180910390a45b5050505050565b5f604051905090565b5f5ffd5b5f5ffd5b5f73ffffffffffffffffffffffffffffffffffffffff82169050919050565b5f6131458261311c565b9050919050565b6131558161313b565b811461315f575f5ffd5b50565b5f813590506131708161314c565b92915050565b5f819050919050565b61318881613176565b8114613192575f5ffd5b50565b5f813590506131a38161317f565b92915050565b5f5f604083850312156131bf576131be613114565b5b5f6131cc85828601613162565b92505060206131dd85828601613195565b9150509250929050565b6131f081613176565b82525050565b5f6020820190506132095f8301846131e7565b92915050565b5f7fffffffff0000000000000000000000000000000000000000000000000000000082169050919050565b6132438161320f565b811461324d575f5ffd5b50565b5f8135905061325e8161323a565b92915050565b5f6020828403121561327957613278613114565b5b5f61328684828501613250565b91505092915050565b5f8115159050919050565b6132a38161328f565b82525050565b5f6020820190506132bc5f83018461329a565b92915050565b5f819050919050565b6132d4816132c2565b82525050565b5f6020820190506132ed5f8301846132cb565b92915050565b5f6020828403121561330857613307613114565b5b5f61331584828501613195565b91505092915050565b5f81519050919050565b5f82825260208201905092915050565b8281835e5f83830152505050565b5f601f19601f8301169050919050565b5f6133608261331e565b61336a8185613328565b935061337a818560208601613338565b61338381613346565b840191505092915050565b5f6020820190508181035f8301526133a68184613356565b905092915050565b6133b7816132c2565b81146133c1575f5ffd5b50565b5f813590506133d2816133ae565b92915050565b5f602082840312156133ed576133ec613114565b5b5f6133fa848285016133c4565b91505092915050565b5f819050919050565b5f61342661342161341c8461311c565b613403565b61311c565b9050919050565b5f6134378261340c565b9050919050565b5f6134488261342d565b9050919050565b6134588161343e565b82525050565b5f6020820190506134715f83018461344f565b92915050565b5f5f6040838503121561348d5761348c613114565b5b5f61349a85828601613195565b92505060206134ab85828601613195565b9150509250929050565b5f5ffd5b7f4e487b71000000000000000000000000000000000000000000000000000000005f52604160045260245ffd5b6134ef82613346565b810181811067ffffffffffffffff8211171561350e5761350d6134b9565b5b80604052505050565b5f61352061310b565b905061352c82826134e6565b919050565b5f67ffffffffffffffff82111561354b5761354a6134b9565b5b602082029050602081019050919050565b5f5ffd5b5f61357261356d84613531565b613517565b905080838252602082019050602084028301858111156135955761359461355c565b5b835b818110156135be57806135aa8882613195565b845260208401935050602081019050613597565b5050509392505050565b5f82601f8301126135dc576135db6134b5565b5b81356135ec848260208601613560565b91505092915050565b5f5ffd5b5f67ffffffffffffffff821115613613576136126134b9565b5b61361c82613346565b9050602081019050919050565b828183375f83830152505050565b5f613649613644846135f9565b613517565b905082815260208101848484011115613665576136646135f5565b5b613670848285613629565b509392505050565b5f82601f83011261368c5761368b6134b5565b5b813561369c848260208601613637565b91505092915050565b5f5f5f5f5f60a086880312156136be576136bd613114565b5b5f6136cb88828901613162565b95505060206136dc88828901613162565b945050604086013567ffffffffffffffff8111156136fd576136fc613118565b5b613709888289016135c8565b935050606086013567ffffffffffffffff81111561372a57613729613118565b5b613736888289016135c8565b925050608086013567ffffffffffffffff81111561375757613756613118565b5b61376388828901613678565b9150509295509295909350565b5f5f6040838503121561378657613785613114565b5b5f613793858286016133c4565b92505060206137a485828601613162565b9150509250929050565b5f67ffffffffffffffff8211156137c8576137c76134b9565b5b602082029050602081019050919050565b5f6137eb6137e6846137ae565b613517565b9050808382526020820190506020840283018581111561380e5761380d61355c565b5b835b8181101561383757806138238882613162565b845260208401935050602081019050613810565b5050509392505050565b5f82601f830112613855576138546134b5565b5b81356138658482602086016137d9565b91505092915050565b5f5f6040838503121561388457613883613114565b5b5f83013567ffffffffffffffff8111156138a1576138a0613118565b5b6138ad85828601613841565b925050602083013567ffffffffffffffff8111156138ce576138cd613118565b5b6138da858286016135c8565b9150509250929050565b5f81519050919050565b5f82825260208201905092915050565b5f819050602082019050919050565b61391681613176565b82525050565b5f613927838361390d565b60208301905092915050565b5f602082019050919050565b5f613949826138e4565b61395381856138ee565b935061395e836138fe565b805f5b8381101561398e578151613975888261391c565b975061398083613933565b925050600181019050613961565b5085935050505092915050565b5f6020820190508181035f8301526139b3818461393f565b905092915050565b5f5f5f606084860312156139d2576139d1613114565b5b5f6139df86828701613195565b93505060206139f086828701613162565b9250506040613a0186828701613195565b9150509250925092565b5f5ffd5b5f5f83601f840112613a2457613a236134b5565b5b8235905067ffffffffffffffff811115613a4157613a40613a0b565b5b602083019150836001820283011115613a5d57613a5c61355c565b5b9250929050565b5f5f60208385031215613a7a57613a79613114565b5b5f83013567ffffffffffffffff811115613a9757613a96613118565b5b613aa385828601613a0f565b92509250509250929050565b613ab88161328f565b8114613ac2575f5ffd5b50565b5f81359050613ad381613aaf565b92915050565b5f5f60408385031215613aef57613aee613114565b5b5f613afc85828601613195565b9250506020613b0d85828601613ac5565b9150509250929050565b5f5f60408385031215613b2d57613b2c613114565b5b5f613b3a85828601613162565b9250506020613b4b85828601613ac5565b9150509250929050565b613b5e8161320f565b82525050565b5f602082019050613b775f830184613b55565b92915050565b613b868161313b565b82525050565b5f60a082019050613b9f5f830188613b7d565b613bac60208301876131e7565b613bb960408301866131e7565b613bc660608301856131e7565b613bd3608083018461329a565b9695505050505050565b5f5f60408385031215613bf357613bf2613114565b5b5f613c0085828601613162565b9250506020613c1185828601613162565b9150509250929050565b5f5f5f60608486031215613c3257613c31613114565b5b5f613c3f86828701613195565b9350506020613c5086828701613195565b9250506040613c6186828701613195565b9150509250925092565b5f5f5f5f5f60a08688031215613c8457613c83613114565b5b5f613c9188828901613162565b9550506020613ca288828901613162565b9450506040613cb388828901613195565b9350506060613cc488828901613195565b925050608086013567ffffffffffffffff811115613ce557613ce4613118565b5b613cf188828901613678565b9150509295509295909350565b7f4e487b71000000000000000000000000000000000000000000000000000000005f52602260045260245ffd5b5f6002820490506001821680613d4257607f821691505b602082108103613d5557613d54613cfe565b5b50919050565b5f81905092915050565b5f819050815f5260205f209050919050565b5f8154613d8381613d2b565b613d8d8186613d5b565b9450600182165f8114613da75760018114613dbc57613dee565b60ff1983168652811515820286019350613dee565b613dc585613d65565b5f5b83811015613de657815481890152600182019150602081019050613dc7565b838801955050505b50505092915050565b5f613e018261331e565b613e0b8185613d5b565b9350613e1b818560208601613338565b80840191505092915050565b7f2e6a736f6e0000000000000000000000000000000000000000000000000000005f82015250565b5f613e5b600583613d5b565b9150613e6682613e27565b600582019050919050565b5f613e7c8285613d77565b9150613e888284613df7565b9150613e9382613e4f565b91508190509392505050565b7f4665652063616e6e6f74206578636565642031302500000000000000000000005f82015250565b5f613ed3601583613328565b9150613ede82613e9f565b602082019050919050565b5f6020820190508181035f830152613f0081613ec7565b9050919050565b5f606082019050613f1a5f830186613b7d565b613f2760208301856131e7565b613f3460408301846131e7565b949350505050565b7f4e487b71000000000000000000000000000000000000000000000000000000005f52601160045260245ffd5b5f613f7382613176565b9150613f7e83613176565b9250828202613f8c81613176565b91508282048414831517613fa357613fa2613f3c565b5b5092915050565b5f604082019050613fbd5f8301856131e7565b613fca60208301846131e7565b9392505050565b5f613fdb82613176565b9150613fe683613176565b9250828203905081811115613ffe57613ffd613f3c565b5b92915050565b7f4e487b71000000000000000000000000000000000000000000000000000000005f52601260045260245ffd5b5f61403b82613176565b915061404683613176565b92508261405657614055614004565b5b828204905092915050565b5f81905092915050565b50565b5f6140795f83614061565b91506140848261406b565b5f82019050919050565b5f6140988261406e565b9150819050919050565b7f53656c6c6572207061796d656e74206661696c656400000000000000000000005f82015250565b5f6140d6601583613328565b91506140e1826140a2565b602082019050919050565b5f6020820190508181035f830152614103816140ca565b9050919050565b7f4e6f7420796f7572206c697374696e67000000000000000000000000000000005f82015250565b5f61413e601083613328565b91506141498261410a565b602082019050919050565b5f6020820190508181035f83015261416b81614132565b9050919050565b7f4e487b71000000000000000000000000000000000000000000000000000000005f52603260045260245ffd5b5f82905092915050565b5f6020601f8301049050919050565b5f82821b905092915050565b5f600883026141f37fffffffffffffffffffffffffffffffffffffffffffffffffffffffffffffffff826141b8565b6141fd86836141b8565b95508019841693508086168417925050509392505050565b5f61422f61422a61422584613176565b613403565b613176565b9050919050565b5f819050919050565b61424883614215565b61425c61425482614236565b8484546141c4565b825550505050565b5f5f905090565b614273614264565b61427e81848461423f565b505050565b5b818110156142a1576142965f8261426b565b600181019050614284565b5050565b601f8211156142e6576142b781613d65565b6142c0846141a9565b810160208510156142cf578190505b6142e36142db856141a9565b830182614283565b50505b505050565b5f82821c905092915050565b5f6143065f19846008026142eb565b1980831691505092915050565b5f61431e83836142f7565b9150826002028217905092915050565b614338838361419f565b67ffffffffffffffff811115614351576143506134b9565b5b61435b8254613d2b565b6143668282856142a5565b5f601f831160018114614393575f8415614381578287013590505b61438b8582614313565b8655506143f2565b601f1984166143a186613d65565b5f5b828110156143c8578489013582556001820191506020850194506020810190506143a3565b868310156143e557848901356143e1601f8916826142f7565b8355505b6001600288020188555050505b50505050505050565b5f815190506144098161314c565b92915050565b5f6020828403121561442457614423613114565b5b5f614431848285016143fb565b91505092915050565b5f61444482613176565b915061444f83613176565b925082820190508082111561446757614466613f3c565b5b92915050565b5f61447782613176565b91507fffffffffffffffffffffffffffffffffffffffffffffffffffffffffffffffff82036144a9576144a8613f3c565b5b600182019050919050565b5f6060820190506144c75f8301866131e7565b6144d460208301856131e7565b6144e160408301846131e7565b949350505050565b5f6020820190506144fc5f830184613b7d565b92915050565b5f6040820190506145155f830185613b7d565b6145226020830184613b7d565b9392505050565b5f60408201905061453c5f830185613b7d565b61454960208301846132cb565b9392505050565b5f81519050919050565b5f82825260208201905092915050565b5f61457482614550565b61457e818561455a565b935061458e818560208601613338565b61459781613346565b840191505092915050565b5f60a0820190506145b55f830188613b7d565b6145c26020830187613b7d565b81810360408301526145d4818661393f565b905081810360608301526145e8818561393f565b905081810360808301526145fc818461456a565b90509695505050505050565b5f815190506146168161323a565b92915050565b5f6020828403121561463157614630613114565b5b5f61463e84828501614608565b91505092915050565b5f60a08201905061465a5f830188613b7d565b6146676020830187613b7d565b61467460408301866131e7565b61468160608301856131e7565b8181036080830152614693818461456a565b90509695505050505050565b5f6080820190506146b25f830187613b7d565b6146bf60208301866131e7565b6146cc60408301856131e7565b6146d960608301846131e7565b95945050505050565b5f6040820190508181035f8301526146fa818561393f565b9050818103602083015261470e818461393f565b9050939250505056fea2646970667358221220f13a29af729ce64b898515924ac987c4c33df8808c1408bb667fc8b72cd8083364736f6c634300081c0033",
  "linkReferences": {},
  "deployedLinkReferences": {},
  "immutableReferences": {
    "11491": [
      {
        "length": 32,
        "start": 2751
      },
      {
        "length": 32,
        "start": 4937
      }
    ]
  },
  "inputSourceName": "project/contracts/ERC_1155.sol",
  "buildInfoId": "solc-0_8_28-4bd0aa727cd6af9c7b7c99db33fca0917c0d21e3"
}