{
  "_format": "hh3-artifact-1",
  "contractName": "ContentNFT",
  "sourceName": "contracts/ERC_721.sol",
  "abi": [
    {
      "inputs": [
        {
          "internalType": "uint256",
          "name": "initialFeeBps",
          "type": "uint256"
        }
      ],
      "stateMutability": "nonpayable",
      "type": "constructor"
    },
    {
      "inputs": [],
      "name": "AccessControlBadConfirmation",
      "type": "error"
    },
    {
      "inputs": [
        {
          "internalType": "address",
          "name": "account",
          "type": "address"
        },
        {
          "internalType": "bytes32",
          "name": "neededRole",
          "type": "bytes32"
        }
      ],
      "name": "AccessControlUnauthorizedAccount",
      "type": "error"
    },
    {
      "inputs": [],
      "name": "AccessTokenNotSet",
      "type": "error"
    },
    {
      "inputs": [
        {
          "internalType": "uint256",
          "name": "tokenId",
          "type": "uint256"
        }
      ],
      "name": "ContentNotFound",
      "type": "error"
    },
    {
      "inputs": [
        {
          "internalType": "address",
          "name": "sender",
          "type": "address"
        },
        {
          "internalType": "uint256",
          "name": "tokenId",
          "type": "uint256"
        },
        {
          "internalType": "address",
          "name": "owner",
          "type": "address"
        }
      ],
      "name": "ERC721IncorrectOwner",
      "type": "error"
    },
    {
      "inputs": [
        {
          "internalType": "address",
          "name": "operator",
          "type": "address"
        },
        {
          "internalType": "uint256",
          "name": "tokenId",
          "type": "uint256"
        }
      ],
      "name": "ERC721InsufficientApproval",
      "type": "error"
    },
    {
      "inputs": [
        {
          "internalType": "address",
          "name": "approver",
          "type": "address"
        }
      ],
      "name": "ERC721InvalidApprover",
      "type": "error"
    },
    {
      "inputs": [
        {
          "internalType": "address",
          "name": "operator",
          "type": "address"
        }
      ],
      "name": "ERC721InvalidOperator",
      "type": "error"
    },
    {
      "inputs": [
        {
          "internalType": "address",
          "name": "owner",
          "type": "address"
        }
      ],
      "name": "ERC721InvalidOwner",
      "type": "error"
    },
    {
      "inputs": [
        {
          "internalType": "address",
          "name": "receiver",
          "type": "address"
        }
      ],
      "name": "ERC721InvalidReceiver",
      "type": "error"
    },
    {
      "inputs": [
        {
          "internalType": "address",
          "name": "sender",
          "type": "address"
        }
      ],
      "name": "ERC721InvalidSender",
      "type": "error"
    },
    {
      "inputs": [
        {
          "internalType": "uint256",
          "name": "tokenId",
          "type": "uint256"
        }
      ],
      "name": "ERC721NonexistentToken",
      "type": "error"
    },
    {
      "inputs": [
        {
          "internalType": "uint256",
          "name": "required",
          "type": "uint256"
        },
        {
          "internalType": "uint256",
          "name": "sent",
          "type": "uint256"
        }
      ],
      "name": "InsufficientPayment",
      "type": "error"
    },
    {
      "inputs": [
        {
          "internalType": "uint256",
          "name": "contentId",
          "type": "uint256"
        },
        {
          "internalType": "uint256",
          "name": "maxPasses",
          "type": "uint256"
        }
      ],
      "name": "MaxPassesReached",
      "type": "error"
    },
    {
      "inputs": [
        {
          "internalType": "uint256",
          "name": "tokenId",
          "type": "uint256"
        },
        {
          "internalType": "address",
          "name": "caller",
          "type": "address"
        }
      ],
      "name": "NotContentOwner",
      "type": "error"
    },
    {
      "inputs": [],
      "name": "ReentrancyGuardReentrantCall",
      "type": "error"
    },
    {
      "inputs": [],
      "name": "WithdrawFailed",
      "type": "error"
    },
    {
      "inputs": [],
      "name": "ZeroAmount",
      "type": "error"
    },
    {
      "anonymous": false,
      "inputs": [
        {
          "indexed": true,
          "internalType": "uint256",
          "name": "contentId",
          "type": "uint256"
        },
        {
          "indexed": true,
          "internalType": "address",
          "name": "grantedTo",
          "type": "address"
        },
        {
          "indexed": false,
          "internalType": "uint256",
          "name": "amount",
          "type": "uint256"
        },
        {
          "indexed": false,
          "internalType": "bool",
          "name": "wasPaid",
          "type": "bool"
        }
      ],
      "name": "AccessGranted",
      "type": "event"
    },
    {
      "anonymous": false,
      "inputs": [
        {
          "indexed": true,
          "internalType": "uint256",
          "name": "contentId",
          "type": "uint256"
        },
        {
          "indexed": false,
          "internalType": "uint256",
          "name": "newPrice",
          "type": "uint256"
        }
      ],
      "name": "AccessPriceUpdated",
      "type": "event"
    },
    {
      "anonymous": false,
      "inputs": [
        {
          "indexed": true,
          "internalType": "uint256",
          "name": "contentId",
          "type": "uint256"
        },
        {
          "indexed": true,
          "internalType": "address",
          "name": "revokedFrom",
          "type": "address"
        },
        {
          "indexed": false,
          "internalType": "uint256",
          "name": "amount",
          "type": "uint256"
        }
      ],
      "name": "AccessRevoked",
      "type": "event"
    },
    {
      "anonymous": false,
      "inputs": [
        {
          "indexed": true,
          "internalType": "address",
          "name": "contractAddress",
          "type": "address"
        }
      ],
      "name": "AccessTokenContractSet",
      "type": "event"
    },
    {
      "anonymous": false,
      "inputs": [
        {
          "indexed": true,
          "internalType": "address",
          "name": "owner",
          "type": "address"
        },
        {
          "indexed": true,
          "internalType": "address",
          "name": "approved",
          "type": "address"
        },
        {
          "indexed": true,
          "internalType": "uint256",
          "name": "tokenId",
          "type": "uint256"
        }
      ],
      "name": "Approval",
      "type": "event"
    },
    {
      "anonymous": false,
      "inputs": [
        {
          "indexed": true,
          "internalType": "address",
          "name": "owner",
          "type": "address"
        },
        {
          "indexed": true,
          "internalType": "address",
          "name": "operator",
          "type": "address"
        },
        {
          "indexed": false,
          "internalType": "bool",
          "name": "approved",
          "type": "bool"
        }
      ],
      "name": "ApprovalForAll",
      "type": "event"
    },
    {
      "anonymous": false,
      "inputs": [
        {
          "indexed": false,
          "internalType": "uint256",
          "name": "_fromTokenId",
          "type": "uint256"
        },
        {
          "indexed": false,
          "internalType": "uint256",
          "name": "_toTokenId",
          "type": "uint256"
        }
      ],
      "name": "BatchMetadataUpdate",
      "type": "event"
    },
    {
      "anonymous": false,
      "inputs": [
        {
          "indexed": true,
          "internalType": "uint256",
          "name": "contentId",
          "type": "uint256"
        },
        {
          "indexed": false,
          "internalType": "uint256",
          "name": "newPrice",
          "type": "uint256"
        }
      ],
      "name": "ContentPriceUpdated",
      "type": "event"
    },
    {
      "anonymous": false,
      "inputs": [
        {
          "indexed": true,
          "internalType": "uint256",
          "name": "tokenId",
          "type": "uint256"
        },
        {
          "indexed": true,
          "internalType": "address",
          "name": "creator",
          "type": "address"
        },
        {
          "indexed": false,
          "internalType": "bytes32",
          "name": "contentHash",
          "type": "bytes32"
        },
        {
          "indexed": false,
          "internalType": "enum ContentNFT.ContentType",
          "name": "contentType",
          "type": "uint8"
        },
        {
          "indexed": false,
          "internalType": "string",
          "name": "title",
          "type": "string"
        }
      ],
      "name": "ContentPublished",
      "type": "event"
    },
    {
      "anonymous": false,
      "inputs": [
        {
          "indexed": true,
          "internalType": "uint256",
          "name": "contentId",
          "type": "uint256"
        },
        {
          "indexed": true,
          "internalType": "address",
          "name": "seller",
          "type": "address"
        },
        {
          "indexed": true,
          "internalType": "address",
          "name": "buyer",
          "type": "address"
        },
        {
          "indexed": false,
          "internalType": "uint256",
          "name": "price",
          "type": "uint256"
        },
        {
          "indexed": false,
          "internalType": "uint256",
          "name": "platformFee",
          "type": "uint256"
        }
      ],
      "name": "ContentPurchased",
      "type": "event"
    },
    {
      "anonymous": false,
      "inputs": [
        {
          "indexed": false,
          "internalType": "uint256",
          "name": "_tokenId",
          "type": "uint256"
        }
      ],
      "name": "MetadataUpdate",
      "type": "event"
    },
    {
      "anonymous": false,
      "inputs": [
        {
          "indexed": false,
          "internalType": "uint256",
          "name": "newFeeBps",
          "type": "uint256"
        }
      ],
      "name": "PlatformFeeUpdated",
      "type": "event"
    },
    {
      "anonymous": false,
      "inputs": [
        {
          "indexed": true,
          "internalType": "bytes32",
          "name": "role",
          "type": "bytes32"
        },
        {
          "indexed": true,
          "internalType": "bytes32",
          "name": "previousAdminRole",
          "type": "bytes32"
        },
        {
          "indexed": true,
          "internalType": "bytes32",
          "name": "newAdminRole",
          "type": "bytes32"
        }
      ],
      "name": "RoleAdminChanged",
      "type": "event"
    },
    {
      "anonymous": false,
      "inputs": [
        {
          "indexed": true,
          "internalType": "bytes32",
          "name": "role",
          "type": "bytes32"
        },
        {
          "indexed": true,
          "internalType": "address",
          "name": "account",
          "type": "address"
        },
        {
          "indexed": true,
          "internalType": "address",
          "name": "sender",
          "type": "address"
        }
      ],
      "name": "RoleGranted",
      "type": "event"
    },
    {
      "anonymous": false,
      "inputs": [
        {
          "indexed": true,
          "internalType": "bytes32",
          "name": "role",
          "type": "bytes32"
        },
        {
          "indexed": true,
          "internalType": "address",
          "name": "account",
          "type": "address"
        },
        {
          "indexed": true,
          "internalType": "address",
          "name": "sender",
          "type": "address"
        }
      ],
      "name": "RoleRevoked",
      "type": "event"
    },
    {
      "anonymous": false,
      "inputs": [
        {
          "indexed": true,
          "internalType": "address",
          "name": "from",
          "type": "address"
        },
        {
          "indexed": true,
          "internalType": "address",
          "name": "to",
          "type": "address"
        },
        {
          "indexed": true,
          "internalType": "uint256",
          "name": "tokenId",
          "type": "uint256"
        }
      ],
      "name": "Transfer",
      "type": "event"
    },
    {
      "inputs": [],
      "name": "DEFAULT_ADMIN_ROLE",
      "outputs": [
        {
          "internalType": "bytes32",
          "name": "",
          "type": "bytes32"
        }
      ],
      "stateMutability": "view",
      "type": "function"
    },
    {
      "inputs": [],
      "name": "PLATFORM_ADMIN",
      "outputs": [
        {
          "internalType": "bytes32",
          "name": "",
          "type": "bytes32"
        }
      ],
      "stateMutability": "view",
      "type": "function"
    },
    {
      "inputs": [
        {
          "internalType": "uint256",
          "name": "contentId",
          "type": "uint256"
        }
      ],
      "name": "accessPassesIssued",
      "outputs": [
        {
          "internalType": "uint256",
          "name": "",
          "type": "uint256"
        }
      ],
      "stateMutability": "view",
      "type": "function"
    },
    {
      "inputs": [],
      "name": "accessTokenContract",
      "outputs": [
        {
          "internalType": "contract IAccessToken",
          "name": "",
          "type": "address"
        }
      ],
      "stateMutability": "view",
      "type": "function"
    },
    {
      "inputs": [
        {
          "internalType": "address",
          "name": "to",
          "type": "address"
        },
        {
          "internalType": "uint256",
          "name": "tokenId",
          "type": "uint256"
        }
      ],
      "name": "approve",
      "outputs": [],
      "stateMutability": "nonpayable",
      "type": "function"
    },
    {
      "inputs": [
        {
          "internalType": "address",
          "name": "owner",
          "type": "address"
        }
      ],
      "name": "balanceOf",
      "outputs": [
        {
          "internalType": "uint256",
          "name": "",
          "type": "uint256"
        }
      ],
      "stateMutability": "view",
      "type": "function"
    },
    {
      "inputs": [
        {
          "internalType": "uint256",
          "name": "tokenId",
          "type": "uint256"
        }
      ],
      "name": "contentInfo",
      "outputs": [
        {
          "components": [
            {
              "internalType": "address",
              "name": "creator",
              "type": "address"
            },
            {
              "internalType": "bytes32",
              "name": "contentHash",
              "type": "bytes32"
            },
            {
              "internalType": "enum ContentNFT.ContentType",
              "name": "contentType",
              "type": "uint8"
            },
            {
              "internalType": "string",
              "name": "title",
              "type": "string"
            },
            {
              "internalType": "uint64",
              "name": "createdAt",
              "type": "uint64"
            },
            {
              "internalType": "uint256",
              "name": "contentPrice",
              "type": "uint256"
            },
            {
              "internalType": "uint256",
              "name": "accessPrice",
              "type": "uint256"
            },
            {
              "internalType": "uint256",
              "name": "maxAccessPasses",
              "type": "uint256"
            },
            {
              "internalType": "bool",
              "name": "exists",
              "type": "bool"
            }
          ],
          "internalType": "struct ContentNFT.Content",
          "name": "",
          "type": "tuple"
        }
      ],
      "stateMutability": "view",
      "type": "function"
    },
    {
      "inputs": [
        {
          "internalType": "uint256",
          "name": "tokenId",
          "type": "uint256"
        }
      ],
      "name": "getApproved",
      "outputs": [
        {
          "internalType": "address",
          "name": "",
          "type": "address"
        }
      ],
      "stateMutability": "view",
      "type": "function"
    },
    {
      "inputs": [
        {
          "internalType": "bytes32",
          "name": "role",
          "type": "bytes32"
        }
      ],
      "name": "getRoleAdmin",
      "outputs": [
        {
          "internalType": "bytes32",
          "name": "",
          "type": "bytes32"
        }
      ],
      "stateMutability": "view",
      "type": "function"
    },
    {
      "inputs": [
        {
          "internalType": "uint256",
          "name": "contentId",
          "type": "uint256"
        },
        {
          "internalType": "address",
          "name": "to",
          "type": "address"
        },
        {
          "internalType": "uint256",
          "name": "amount",
          "type": "uint256"
        }
      ],
      "name": "grantAccess",
      "outputs": [],
      "stateMutability": "nonpayable",
      "type": "function"
    },
    {
      "inputs": [
        {
          "internalType": "bytes32",
          "name": "role",
          "type": "bytes32"
        },
        {
          "internalType": "address",
          "name": "account",
          "type": "address"
        }
      ],
      "name": "grantRole",
      "outputs": [],
      "stateMutability": "nonpayable",
      "type": "function"
    },
    {
      "inputs": [
        {
          "internalType": "bytes32",
          "name": "role",
          "type": "bytes32"
        },
        {
          "internalType": "address",
          "name": "account",
          "type": "address"
        }
      ],
      "name": "hasRole",
      "outputs": [
        {
          "internalType": "bool",
          "name": "",
          "type": "bool"
        }
      ],
      "stateMutability": "view",
      "type": "function"
    },
    {
      "inputs": [
        {
          "internalType": "address",
          "name": "owner",
          "type": "address"
        },
        {
          "internalType": "address",
          "name": "operator",
          "type": "address"
        }
      ],
      "name": "isApprovedForAll",
      "outputs": [
        {
          "internalType": "bool",
          "name": "",
          "type": "bool"
        }
      ],
      "stateMutability": "view",
      "type": "function"
    },
    {
      "inputs": [],
      "name": "name",
      "outputs": [
        {
          "internalType": "string",
          "name": "",
          "type": "string"
        }
      ],
      "stateMutability": "view",
      "type": "function"
    },
    {
      "inputs": [
        {
          "internalType": "uint256",
          "name": "tokenId",
          "type": "uint256"
        }
      ],
      "name": "ownerOf",
      "outputs": [
        {
          "internalType": "address",
          "name": "",
          "type": "address"
        }
      ],
      "stateMutability": "view",
      "type": "function"
    },
    {
      "inputs": [],
      "name": "platformFeeBps",
      "outputs": [
        {
          "internalType": "uint256",
          "name": "",
          "type": "uint256"
        }
      ],
      "stateMutability": "view",
      "type": "function"
    },
    {
      "inputs": [
        {
          "internalType": "string",
          "name": "metadataURI",
          "type": "string"
        },
        {
          "internalType": "bytes32",
          "name": "contentHash",
          "type": "bytes32"
        },
        {
          "internalType": "enum ContentNFT.ContentType",
          "name": "contentType",
          "type": "uint8"
        },
        {
          "internalType": "string",
          "name": "title",
          "type": "string"
        },
        {
          "internalType": "uint256",
          "name": "contentPrice",
          "type": "uint256"
        },
        {
          "internalType": "uint256",
          "name": "accessPrice",
          "type": "uint256"
        },
        {
          "internalType": "uint256",
          "name": "maxPasses",
          "type": "uint256"
        }
      ],
      "name": "publishContent",
      "outputs": [
        {
          "internalType": "uint256",
          "name": "tokenId",
          "type": "uint256"
        }
      ],
      "stateMutability": "nonpayable",
      "type": "function"
    },
    {
      "inputs": [
        {
          "internalType": "uint256",
          "name": "contentId",
          "type": "uint256"
        },
        {
          "internalType": "uint256",
          "name": "amount",
          "type": "uint256"
        }
      ],
      "name": "purchaseAccess",
      "outputs": [],
      "stateMutability": "payable",
      "type": "function"
    },
    {
      "inputs": [
        {
          "internalType": "uint256",
          "name": "contentId",
          "type": "uint256"
        }
      ],
      "name": "purchaseContent",
      "outputs": [],
      "stateMutability": "payable",
      "type": "function"
    },
    {
      "inputs": [
        {
          "internalType": "bytes32",
          "name": "role",
          "type": "bytes32"
        },
        {
          "internalType": "address",
          "name": "callerConfirmation",
          "type": "address"
        }
      ],
      "name": "renounceRole",
      "outputs": [],
      "stateMutability": "nonpayable",
      "type": "function"
    },
    {
      "inputs": [
        {
          "internalType": "uint256",
          "name": "contentId",
          "type": "uint256"
        },
        {
          "internalType": "address",
          "name": "from",
          "type": "address"
        },
        {
          "internalType": "uint256",
          "name": "amount",
          "type": "uint256"
        }
      ],
      "name": "revokeAccess",
      "outputs": [],
      "stateMutability": "nonpayable",
      "type": "function"
    },
    {
      "inputs": [
        {
          "internalType": "bytes32",
          "name": "role",
          "type": "bytes32"
        },
        {
          "internalType": "address",
          "name": "account",
          "type": "address"
        }
      ],
      "name": "revokeRole",
      "outputs": [],
      "stateMutability": "nonpayable",
      "type": "function"
    },
    {
      "inputs": [
        {
          "internalType": "address",
          "name": "from",
          "type": "address"
        },
        {
          "internalType": "address",
          "name": "to",
          "type": "address"
        },
        {
          "internalType": "uint256",
          "name": "tokenId",
          "type": "uint256"
        }
      ],
      "name": "safeTransferFrom",
      "outputs": [],
      "stateMutability": "nonpayable",
      "type": "function"
    },
    {
      "inputs": [
        {
          "internalType": "address",
          "name": "from",
          "type": "address"
        },
        {
          "internalType": "address",
          "name": "to",
          "type": "address"
        },
        {
          "internalType": "uint256",
          "name": "tokenId",
          "type": "uint256"
        },
        {
          "internalType": "bytes",
          "name": "data",
          "type": "bytes"
        }
      ],
      "name": "safeTransferFrom",
      "outputs": [],
      "stateMutability": "nonpayable",
      "type": "function"
    },
    {
      "inputs": [
        {
          "internalType": "uint256",
          "name": "contentId",
          "type": "uint256"
        },
        {
          "internalType": "uint256",
          "name": "newPrice",
          "type": "uint256"
        }
      ],
      "name": "setAccessPrice",
      "outputs": [],
      "stateMutability": "nonpayable",
      "type": "function"
    },
    {
      "inputs": [
        {
          "internalType": "address",
          "name": "contractAddress",
          "type": "address"
        }
      ],
      "name": "setAccessTokenContract",
      "outputs": [],
      "stateMutability": "nonpayable",
      "type": "function"
    },
    {
      "inputs": [
        {
          "internalType": "address",
          "name": "operator",
          "type": "address"
        },
        {
          "internalType": "bool",
          "name": "approved",
          "type": "bool"
        }
      ],
      "name": "setApprovalForAll",
      "outputs": [],
      "stateMutability": "nonpayable",
      "type": "function"
    },
    {
      "inputs": [
        {
          "internalType": "uint256",
          "name": "contentId",
          "type": "uint256"
        },
        {
          "internalType": "uint256",
          "name": "newPrice",
          "type": "uint256"
        }
      ],
      "name": "setContentPrice",
      "outputs": [],
      "stateMutability": "nonpayable",
      "type": "function"
    },
    {
      "inputs": [
        {
          "internalType": "uint256",
          "name": "newFeeBps",
          "type": "uint256"
        }
      ],
      "name": "setPlatformFee",
      "outputs": [],
      "stateMutability": "nonpayable",
      "type": "function"
    },
    {
      "inputs": [
        {
          "internalType": "bytes4",
          "name": "interfaceId",
          "type": "bytes4"
        }
      ],
      "name": "supportsInterface",
      "outputs": [
        {
          "internalType": "bool",
          "name": "",
          "type": "bool"
        }
      ],
      "stateMutability": "view",
      "type": "function"
    },
    {
      "inputs": [],
      "name": "symbol",
      "outputs": [
        {
          "internalType": "string",
          "name": "",
          "type": "string"
        }
      ],
      "stateMutability": "view",
      "type": "function"
    },
    {
      "inputs": [
        {
          "internalType": "uint256",
          "name": "tokenId",
          "type": "uint256"
        }
      ],
      "name": "tokenURI",
      "outputs": [
        {
          "internalType": "string",
          "name": "",
          "type": "string"
        }
      ],
      "stateMutability": "view",
      "type": "function"
    },
    {
      "inputs": [],
      "name": "totalSupply",
      "outputs": [
        {
          "internalType": "uint256",
          "name": "",
          "type": "uint256"
        }
      ],
      "stateMutability": "view",
      "type": "function"
    },
    {
      "inputs": [
        {
          "internalType": "address",
          "name": "from",
          "type": "address"
        },
        {
          "internalType": "address",
          "name": "to",
          "type": "address"
        },
        {
          "internalType": "uint256",
          "name": "tokenId",
          "type": "uint256"
        }
      ],
      "name": "transferFrom",
      "outputs": [],
      "stateMutability": "nonpayable",
      "type": "function"
    },
    {
      "inputs": [],
      "name": "withdraw",
      "outputs": [],
      "stateMutability": "nonpayable",
      "type": "function"
    }
  ],
  "bytecode": "0x608060405234801561000f575f5ffd5b5060405161526c38038061526c833981810160405281019061003191906102fd565b6040518060400160405280600a81526020017f436f6e74656e744e4654000000000000000000000000000000000000000000008152506040518060400160405280600481526020017f434e465400000000000000000000000000000000000000000000000000000000815250815f90816100ab919061055c565b5080600190816100bb919061055c565b50505060016100dc6100d161013360201b60201c565b61015c60201b60201c565b5f01819055506100f45f5f1b3361016560201b60201c565b506101257f4ff52032f36e32ac782042a01802e20394d4255c84a3c046490be98ab632691b3361016560201b60201c565b5080600a819055505061062b565b5f7f9b779b17422d0df92223018b32b4d1fa46e071723d6817e2486d003becc55f005f1b905090565b5f819050919050565b5f610176838361025b60201b60201c565b61025157600160075f8581526020019081526020015f205f015f8473ffffffffffffffffffffffffffffffffffffffff1673ffffffffffffffffffffffffffffffffffffffff1681526020019081526020015f205f6101000a81548160ff0219169083151502179055506101ee6102bf60201b60201c565b73ffffffffffffffffffffffffffffffffffffffff168273ffffffffffffffffffffffffffffffffffffffff16847f2f8788117e7eff1d82e926ec794901d17c78024a50270940304540a733656f0d60405160405180910390a460019050610255565b5f90505b92915050565b5f60075f8481526020019081526020015f205f015f8373ffffffffffffffffffffffffffffffffffffffff1673ffffffffffffffffffffffffffffffffffffffff1681526020019081526020015f205f9054906101000a900460ff16905092915050565b5f33905090565b5f5ffd5b5f819050919050565b6102dc816102ca565b81146102e6575f5ffd5b50565b5f815190506102f7816102d3565b92915050565b5f60208284031215610312576103116102c6565b5b5f61031f848285016102e9565b91505092915050565b5f81519050919050565b7f4e487b71000000000000000000000000000000000000000000000000000000005f52604160045260245ffd5b7f4e487b71000000000000000000000000000000000000000000000000000000005f52602260045260245ffd5b5f60028204905060018216806103a357607f821691505b6020821081036103b6576103b561035f565b5b50919050565b5f819050815f5260205f209050919050565b5f6020601f8301049050919050565b5f82821b905092915050565b5f600883026104187fffffffffffffffffffffffffffffffffffffffffffffffffffffffffffffffff826103dd565b61042286836103dd565b95508019841693508086168417925050509392505050565b5f819050919050565b5f61045d610458610453846102ca565b61043a565b6102ca565b9050919050565b5f819050919050565b61047683610443565b61048a61048282610464565b8484546103e9565b825550505050565b5f5f905090565b6104a1610492565b6104ac81848461046d565b505050565b5b818110156104cf576104c45f82610499565b6001810190506104b2565b5050565b601f821115610514576104e5816103bc565b6104ee846103ce565b810160208510156104fd578190505b610511610509856103ce565b8301826104b1565b50505b505050565b5f82821c905092915050565b5f6105345f1984600802610519565b1980831691505092915050565b5f61054c8383610525565b9150826002028217905092915050565b61056582610328565b67ffffffffffffffff81111561057e5761057d610332565b5b610588825461038c565b6105938282856104d3565b5f60209050601f8311600181146105c4575f84156105b2578287015190505b6105bc8582610541565b865550610623565b601f1984166105d2866103bc565b5f5b828110156105f9578489015182556001820191506020850194506020810190506105d4565b868310156106165784890151610612601f891682610525565b8355505b6001600288020188555050505b505050505050565b614c34806106385f395ff3fe608060405260043610610203575f3560e01c8063504ea33511610117578063a217fddf1161009f578063c1d0a7d81161006e578063c1d0a7d81461074d578063c87b56dd14610777578063d547741f146107b3578063d603b284146107db578063e985e9c51461080357610203565b8063a217fddf146106b7578063a22cb465146106e1578063a8564cbc14610709578063b88d4fde1461072557610203565b8063788ae6e2116100e6578063788ae6e2146105af5780638f1bd033146105eb578063910f770b1461061557806391d148541461065157806395d89b411461068d57610203565b8063504ea335146104e75780636352211e1461050f57806370a082311461054b578063779f77071461058757610203565b8063248a9ca31161019a578063347f379711610169578063347f37971461041d57806336568abe146104595780633ccfd60b1461048157806342842e0e14610497578063486cb174146104bf57610203565b8063248a9ca31461037557806325bb1d06146103b157806328f2ac28146103d95780632f2ff15d146103f557610203565b806312e8e2c3116101d657806312e8e2c3146102d157806318160ddd146102f957806322dcd13e1461032357806323b872dd1461034d57610203565b806301ffc9a71461020757806306fdde0314610243578063081812fc1461026d578063095ea7b3146102a9575b5f5ffd5b348015610212575f5ffd5b5061022d6004803603810190610228919061383f565b61083f565b60405161023a9190613884565b60405180910390f35b34801561024e575f5ffd5b50610257610850565b604051610264919061390d565b60405180910390f35b348015610278575f5ffd5b50610293600480360381019061028e9190613960565b6108df565b6040516102a091906139ca565b60405180910390f35b3480156102b4575f5ffd5b506102cf60048036038101906102ca9190613a0d565b6108fa565b005b3480156102dc575f5ffd5b506102f760048036038101906102f29190613960565b610910565b005b348015610304575f5ffd5b5061030d6109c1565b60405161031a9190613a5a565b60405180910390f35b34801561032e575f5ffd5b506103376109ca565b6040516103449190613a5a565b60405180910390f35b348015610358575f5ffd5b50610373600480360381019061036e9190613a73565b6109d0565b005b348015610380575f5ffd5b5061039b60048036038101906103969190613af6565b610acf565b6040516103a89190613b30565b60405180910390f35b3480156103bc575f5ffd5b506103d760048036038101906103d29190613b49565b610aec565b005b6103f360048036038101906103ee9190613960565b610b9d565b005b348015610400575f5ffd5b5061041b60048036038101906104169190613b74565b610f02565b005b348015610428575f5ffd5b50610443600480360381019061043e9190613960565b610f24565b6040516104509190613d8d565b60405180910390f35b348015610464575f5ffd5b5061047f600480360381019061047a9190613b74565b611143565b005b34801561048c575f5ffd5b506104956111be565b005b3480156104a2575f5ffd5b506104bd60048036038101906104b89190613a73565b61127d565b005b3480156104ca575f5ffd5b506104e560048036038101906104e09190613dad565b61129c565b005b3480156104f2575f5ffd5b5061050d60048036038101906105089190613deb565b6112fa565b005b34801561051a575f5ffd5b5061053560048036038101906105309190613960565b611433565b60405161054291906139ca565b60405180910390f35b348015610556575f5ffd5b50610571600480360381019061056c9190613b49565b611444565b60405161057e9190613a5a565b60405180910390f35b348015610592575f5ffd5b506105ad60048036038101906105a89190613dad565b6114fa565b005b3480156105ba575f5ffd5b506105d560048036038101906105d09190613ebf565b6115af565b6040516105e29190613a5a565b60405180910390f35b3480156105f6575f5ffd5b506105ff61185c565b60405161060c9190613ff6565b60405180910390f35b348015610620575f5ffd5b5061063b60048036038101906106369190613960565b611881565b6040516106489190613a5a565b60405180910390f35b34801561065c575f5ffd5b5061067760048036038101906106729190613b74565b61192a565b6040516106849190613884565b60405180910390f35b348015610698575f5ffd5b506106a161198e565b6040516106ae919061390d565b60405180910390f35b3480156106c2575f5ffd5b506106cb611a1e565b6040516106d89190613b30565b60405180910390f35b3480156106ec575f5ffd5b5061070760048036038101906107029190614039565b611a24565b005b610723600480360381019061071e9190613dad565b611a3a565b005b348015610730575f5ffd5b5061074b6004803603810190610746919061419f565b611d26565b005b348015610758575f5ffd5b50610761611d4b565b60405161076e9190613b30565b60405180910390f35b348015610782575f5ffd5b5061079d60048036038101906107989190613960565b611d6f565b6040516107aa919061390d565b60405180910390f35b3480156107be575f5ffd5b506107d960048036038101906107d49190613b74565b611deb565b005b3480156107e6575f5ffd5b5061080160048036038101906107fc9190613deb565b611e0d565b005b34801561080e575f5ffd5b506108296004803603810190610824919061421f565b611f52565b6040516108369190613884565b60405180910390f35b5f61084982611fe0565b9050919050565b60605f805461085e9061428a565b80601f016020809104026020016040519081016040528092919081815260200182805461088a9061428a565b80156108d55780601f106108ac576101008083540402835291602001916108d5565b820191905f5260205f20905b8154815290600101906020018083116108b857829003601f168201915b5050505050905090565b5f6108e982612059565b506108f3826120df565b9050919050565b61090c8282610907612118565b61211f565b5050565b7f4ff52032f36e32ac782042a01802e20394d4255c84a3c046490be98ab632691b61093a81612131565b6103e882111561097f576040517f08c379a000000000000000000000000000000000000000000000000000000000815260040161097690614304565b60405180910390fd5b81600a819055507f45610d581145924dd7090a5017e5f2b1d6f42213bb2e95707ff86846bbfcb1ca826040516109b59190613a5a565b60405180910390a15050565b5f600954905090565b600a5481565b5f73ffffffffffffffffffffffffffffffffffffffff168273ffffffffffffffffffffffffffffffffffffffff1603610a40575f6040517f64a0ae92000000000000000000000000000000000000000000000000000000008152600401610a3791906139ca565b60405180910390fd5b5f610a538383610a4e612118565b612145565b90508373ffffffffffffffffffffffffffffffffffffffff168173ffffffffffffffffffffffffffffffffffffffff1614610ac9578382826040517f64283d7b000000000000000000000000000000000000000000000000000000008152600401610ac093929190614322565b60405180910390fd5b50505050565b5f60075f8381526020019081526020015f20600101549050919050565b7f4ff52032f36e32ac782042a01802e20394d4255c84a3c046490be98ab632691b610b1681612131565b8160085f6101000a81548173ffffffffffffffffffffffffffffffffffffffff021916908373ffffffffffffffffffffffffffffffffffffffff1602179055508173ffffffffffffffffffffffffffffffffffffffff167f1b49dd74c45214c7ae11afe58f5fc5d148e5d9d6a5c900f5ca22bf6d043310b560405160405180910390a25050565b610ba5612350565b5f600b5f8381526020019081526020015f209050806008015f9054906101000a900460ff16610c0b57816040517f7049a7cc000000000000000000000000000000000000000000000000000000008152600401610c029190613a5a565b60405180910390fd5b5f8160050154905080341015610c5a5780346040517fb99e2ab7000000000000000000000000000000000000000000000000000000008152600401610c51929190614357565b60405180910390fd5b5f610c6484611433565b90508073ffffffffffffffffffffffffffffffffffffffff163373ffffffffffffffffffffffffffffffffffffffff1603610cd4576040517f08c379a0000000000000000000000000000000000000000000000000000000008152600401610ccb906143c8565b60405180910390fd5b5f612710600a5484610ce69190614413565b610cf09190614481565b90505f8184610cff91906144b1565b90505f811115610db3575f8373ffffffffffffffffffffffffffffffffffffffff1682604051610d2e90614511565b5f6040518083038185875af1925050503d805f8114610d68576040519150601f19603f3d011682016040523d82523d5f602084013e610d6d565b606091505b5050905080610db1576040517f08c379a0000000000000000000000000000000000000000000000000000000008152600401610da89061456f565b60405180910390fd5b505b83341115610e70575f3373ffffffffffffffffffffffffffffffffffffffff168534610ddf91906144b1565b604051610deb90614511565b5f6040518083038185875af1925050503d805f8114610e25576040519150601f19603f3d011682016040523d82523d5f602084013e610e2a565b606091505b5050905080610e6e576040517f08c379a0000000000000000000000000000000000000000000000000000000008152600401610e65906145d7565b60405180910390fd5b505b610e8a83338860405180602001604052805f815250612372565b3373ffffffffffffffffffffffffffffffffffffffff168373ffffffffffffffffffffffffffffffffffffffff16877fa876832b5970c76c3b4f3b8410b3caa6d9be60433a8dc90700a756a27a0495118786604051610eea929190614357565b60405180910390a45050505050610eff612397565b50565b610f0b82610acf565b610f1481612131565b610f1e83836123b1565b50505050565b610f2c613761565b600b5f8381526020019081526020015f206008015f9054906101000a900460ff16610f8e57816040517f7049a7cc000000000000000000000000000000000000000000000000000000008152600401610f859190613a5a565b60405180910390fd5b600b5f8381526020019081526020015f20604051806101200160405290815f82015f9054906101000a900473ffffffffffffffffffffffffffffffffffffffff1673ffffffffffffffffffffffffffffffffffffffff1673ffffffffffffffffffffffffffffffffffffffff16815260200160018201548152602001600282015f9054906101000a900460ff16600581111561102d5761102c613bd0565b5b600581111561103f5761103e613bd0565b5b81526020016003820180546110539061428a565b80601f016020809104026020016040519081016040528092919081815260200182805461107f9061428a565b80156110ca5780601f106110a1576101008083540402835291602001916110ca565b820191905f5260205f20905b8154815290600101906020018083116110ad57829003601f168201915b50505050508152602001600482015f9054906101000a900467ffffffffffffffff1667ffffffffffffffff1667ffffffffffffffff168152602001600582015481526020016006820154815260200160078201548152602001600882015f9054906101000a900460ff1615151515815250509050919050565b61114b612118565b73ffffffffffffffffffffffffffffffffffffffff168173ffffffffffffffffffffffffffffffffffffffff16146111af576040517f6697b23200000000000000000000000000000000000000000000000000000000815260040160405180910390fd5b6111b9828261249b565b505050565b5f5f1b6111ca81612131565b6111d2612350565b5f3373ffffffffffffffffffffffffffffffffffffffff16476040516111f790614511565b5f6040518083038185875af1925050503d805f8114611231576040519150601f19603f3d011682016040523d82523d5f602084013e611236565b606091505b5050905080611271576040517f750b219c00000000000000000000000000000000000000000000000000000000815260040160405180910390fd5b5061127a612397565b50565b61129783838360405180602001604052805f815250611d26565b505050565b6112a582612585565b80600b5f8481526020019081526020015f2060060181905550817f120316a63575c58fc6416f6c611c40451a81c3f9e3a62e243b34379035650e29826040516112ee9190613a5a565b60405180910390a25050565b611302612350565b61130b83612585565b611313612602565b5f810361134c576040517f1f2a200500000000000000000000000000000000000000000000000000000000815260040160405180910390fd5b60085f9054906101000a900473ffffffffffffffffffffffffffffffffffffffff1673ffffffffffffffffffffffffffffffffffffffff1663504ea3358484846040518463ffffffff1660e01b81526004016113aa939291906145f5565b5f604051808303815f87803b1580156113c1575f5ffd5b505af11580156113d3573d5f5f3e3d5ffd5b505050508173ffffffffffffffffffffffffffffffffffffffff16837f0de8b5705f103f4c8b38502a68ff29288ee6251cb54c4b316a5d8b472a11764d8360405161141e9190613a5a565b60405180910390a361142e612397565b505050565b5f61143d82612059565b9050919050565b5f5f73ffffffffffffffffffffffffffffffffffffffff168273ffffffffffffffffffffffffffffffffffffffff16036114b5575f6040517f89c62b640000000000000000000000000000000000000000000000000000000081526004016114ac91906139ca565b60405180910390fd5b60035f8373ffffffffffffffffffffffffffffffffffffffff1673ffffffffffffffffffffffffffffffffffffffff1681526020019081526020015f20549050919050565b61150382612585565b5f600b5f8481526020019081526020015f209050806008015f9054906101000a900460ff1661156957826040517f7049a7cc0000000000000000000000000000000000000000000000000000000081526004016115609190613a5a565b60405180910390fd5b818160050181905550827ff3481b12831e7daefeb3c7059c7f1f4caee9c391bb94a5538e7128834f183429836040516115a29190613a5a565b60405180910390a2505050565b5f6115b8612350565b60095f8154809291906115ca9061462a565b9190505590506115da338261268a565b611627818b8b8080601f0160208091040260200160405190810160405280939291908181526020018383808284375f81840152601f19601f820116905080830192505050505050506126a7565b6040518061012001604052803373ffffffffffffffffffffffffffffffffffffffff16815260200189815260200188600581111561166857611667613bd0565b5b815260200187878080601f0160208091040260200160405190810160405280939291908181526020018383808284375f81840152601f19601f8201169050808301925050505050505081526020014267ffffffffffffffff16815260200185815260200184815260200183815260200160011515815250600b5f8381526020019081526020015f205f820151815f015f6101000a81548173ffffffffffffffffffffffffffffffffffffffff021916908373ffffffffffffffffffffffffffffffffffffffff160217905550602082015181600101556040820151816002015f6101000a81548160ff0219169083600581111561176857611767613bd0565b5b021790555060608201518160030190816117829190614808565b506080820151816004015f6101000a81548167ffffffffffffffff021916908367ffffffffffffffff16021790555060a0820151816005015560c0820151816006015560e08201518160070155610100820151816008015f6101000a81548160ff0219169083151502179055509050503373ffffffffffffffffffffffffffffffffffffffff16817f11cfe40fb0e485a31e0b2b0f3a600a79d934f8480e8b1c62ce950f69cde14d7b8a8a8a8a60405161183f9493929190614912565b60405180910390a361184f612397565b9998505050505050505050565b60085f9054906101000a900473ffffffffffffffffffffffffffffffffffffffff1681565b5f61188a612602565b60085f9054906101000a900473ffffffffffffffffffffffffffffffffffffffff1673ffffffffffffffffffffffffffffffffffffffff16634e9df76c836040518263ffffffff1660e01b81526004016118e49190613a5a565b602060405180830381865afa1580156118ff573d5f5f3e3d5ffd5b505050506040513d601f19601f820116820180604052508101906119239190614964565b9050919050565b5f60075f8481526020019081526020015f205f015f8373ffffffffffffffffffffffffffffffffffffffff1673ffffffffffffffffffffffffffffffffffffffff1681526020019081526020015f205f9054906101000a900460ff16905092915050565b60606001805461199d9061428a565b80601f01602080910402602001604051908101604052809291908181526020018280546119c99061428a565b8015611a145780601f106119eb57610100808354040283529160200191611a14565b820191905f5260205f20905b8154815290600101906020018083116119f757829003601f168201915b5050505050905090565b5f5f1b81565b611a36611a2f612118565b8383612701565b5050565b611a42612350565b611a4a612602565b5f8103611a83576040517f1f2a200500000000000000000000000000000000000000000000000000000000815260040160405180910390fd5b5f600b5f8481526020019081526020015f209050806008015f9054906101000a900460ff16611ae957826040517f7049a7cc000000000000000000000000000000000000000000000000000000008152600401611ae09190613a5a565b60405180910390fd5b5f828260060154611afa9190614413565b905080341015611b435780346040517fb99e2ab7000000000000000000000000000000000000000000000000000000008152600401611b3a929190614357565b60405180910390fd5b611b4d84846128da565b5f811115611c3b575f612710600a5483611b679190614413565b611b719190614481565b90505f8183611b8091906144b1565b90505f611b8c87611433565b90505f8173ffffffffffffffffffffffffffffffffffffffff1683604051611bb390614511565b5f6040518083038185875af1925050503d805f8114611bed576040519150601f19603f3d011682016040523d82523d5f602084013e611bf2565b606091505b5050905080611c36576040517f08c379a0000000000000000000000000000000000000000000000000000000008152600401611c2d906149d9565b60405180910390fd5b505050505b60085f9054906101000a900473ffffffffffffffffffffffffffffffffffffffff1673ffffffffffffffffffffffffffffffffffffffff1663d603b2848533866040518463ffffffff1660e01b8152600401611c99939291906145f5565b5f604051808303815f87803b158015611cb0575f5ffd5b505af1158015611cc2573d5f5f3e3d5ffd5b505050503373ffffffffffffffffffffffffffffffffffffffff16847facdbaffa7119c91891c4c53e942d844e881b5ba8f5bc3bc2fbd85cbfe1fe63ab856001604051611d109291906149f7565b60405180910390a35050611d22612397565b5050565b611d318484846109d0565b611d45611d3c612118565b858585856129fa565b50505050565b7f4ff52032f36e32ac782042a01802e20394d4255c84a3c046490be98ab632691b81565b6060611d7a82612059565b505f611d84612ba6565b90505f611d9084612bbc565b90505f825103611da4578092505050611de6565b5f81511115611dd8578181604051602001611dc0929190614a58565b60405160208183030381529060405292505050611de6565b611de184612c5d565b925050505b919050565b611df482610acf565b611dfd81612131565b611e07838361249b565b50505050565b611e15612350565b611e1e83612585565b611e26612602565b5f8103611e5f576040517f1f2a200500000000000000000000000000000000000000000000000000000000815260040160405180910390fd5b611e6983826128da565b60085f9054906101000a900473ffffffffffffffffffffffffffffffffffffffff1673ffffffffffffffffffffffffffffffffffffffff1663d603b2848484846040518463ffffffff1660e01b8152600401611ec7939291906145f5565b5f604051808303815f87803b158015611ede575f5ffd5b505af1158015611ef0573d5f5f3e3d5ffd5b505050508173ffffffffffffffffffffffffffffffffffffffff16837facdbaffa7119c91891c4c53e942d844e881b5ba8f5bc3bc2fbd85cbfe1fe63ab835f604051611f3d9291906149f7565b60405180910390a3611f4d612397565b505050565b5f60055f8473ffffffffffffffffffffffffffffffffffffffff1673ffffffffffffffffffffffffffffffffffffffff1681526020019081526020015f205f8373ffffffffffffffffffffffffffffffffffffffff1673ffffffffffffffffffffffffffffffffffffffff1681526020019081526020015f205f9054906101000a900460ff16905092915050565b5f7f7965db0b000000000000000000000000000000000000000000000000000000007bffffffffffffffffffffffffffffffffffffffffffffffffffffffff1916827bffffffffffffffffffffffffffffffffffffffffffffffffffffffff19161480612052575061205182612cc3565b5b9050919050565b5f5f61206483612d23565b90505f73ffffffffffffffffffffffffffffffffffffffff168173ffffffffffffffffffffffffffffffffffffffff16036120d657826040517f7e2732890000000000000000000000000000000000000000000000000000000081526004016120cd9190613a5a565b60405180910390fd5b80915050919050565b5f60045f8381526020019081526020015f205f9054906101000a900473ffffffffffffffffffffffffffffffffffffffff169050919050565b5f33905090565b61212c8383836001612d5c565b505050565b6121428161213d612118565b612f1b565b50565b5f5f61215084612d23565b90505f73ffffffffffffffffffffffffffffffffffffffff168373ffffffffffffffffffffffffffffffffffffffff161461219157612190818486612f6c565b5b5f73ffffffffffffffffffffffffffffffffffffffff168173ffffffffffffffffffffffffffffffffffffffff161461221c576121d05f855f5f612d5c565b600160035f8373ffffffffffffffffffffffffffffffffffffffff1673ffffffffffffffffffffffffffffffffffffffff1681526020019081526020015f205f82825403925050819055505b5f73ffffffffffffffffffffffffffffffffffffffff168573ffffffffffffffffffffffffffffffffffffffff161461229b57600160035f8773ffffffffffffffffffffffffffffffffffffffff1673ffffffffffffffffffffffffffffffffffffffff1681526020019081526020015f205f82825401925050819055505b8460025f8681526020019081526020015f205f6101000a81548173ffffffffffffffffffffffffffffffffffffffff021916908373ffffffffffffffffffffffffffffffffffffffff160217905550838573ffffffffffffffffffffffffffffffffffffffff168273ffffffffffffffffffffffffffffffffffffffff167fddf252ad1be2c89b69c2b068fc378daa952ba7f163c4a11628f55a4df523b3ef60405160405180910390a4809150509392505050565b61235861302f565b600261236a612365613070565b613099565b5f0181905550565b61237d8484846130a2565b612391612388612118565b858585856129fa565b50505050565b60016123a96123a4613070565b613099565b5f0181905550565b5f6123bc838361192a565b61249157600160075f8581526020019081526020015f205f015f8473ffffffffffffffffffffffffffffffffffffffff1673ffffffffffffffffffffffffffffffffffffffff1681526020019081526020015f205f6101000a81548160ff02191690831515021790555061242e612118565b73ffffffffffffffffffffffffffffffffffffffff168273ffffffffffffffffffffffffffffffffffffffff16847f2f8788117e7eff1d82e926ec794901d17c78024a50270940304540a733656f0d60405160405180910390a460019050612495565b5f90505b92915050565b5f6124a6838361192a565b1561257b575f60075f8581526020019081526020015f205f015f8473ffffffffffffffffffffffffffffffffffffffff1673ffffffffffffffffffffffffffffffffffffffff1681526020019081526020015f205f6101000a81548160ff021916908315150217905550612518612118565b73ffffffffffffffffffffffffffffffffffffffff168273ffffffffffffffffffffffffffffffffffffffff16847ff6391f5c32d9c69d2a47ea670b442974b53935d1edc7fd64eb21e047a839171b60405160405180910390a46001905061257f565b5f90505b92915050565b3373ffffffffffffffffffffffffffffffffffffffff166125a582611433565b73ffffffffffffffffffffffffffffffffffffffff16146125ff5780336040517f5348eb1e0000000000000000000000000000000000000000000000000000000081526004016125f6929190614a7b565b60405180910390fd5b50565b5f73ffffffffffffffffffffffffffffffffffffffff1660085f9054906101000a900473ffffffffffffffffffffffffffffffffffffffff1673ffffffffffffffffffffffffffffffffffffffff1603612688576040517fec1f17de00000000000000000000000000000000000000000000000000000000815260040160405180910390fd5b565b6126a3828260405180602001604052805f81525061320a565b5050565b8060065f8481526020019081526020015f2090816126c59190614808565b507ff8e1a15aba9398e019f0b49df1a4fde98ee17ae345cb5f6b5e2c27f5033e8ce7826040516126f59190613a5a565b60405180910390a15050565b5f73ffffffffffffffffffffffffffffffffffffffff168373ffffffffffffffffffffffffffffffffffffffff1603612771575f6040517fa9fbf51f00000000000000000000000000000000000000000000000000000000815260040161276891906139ca565b60405180910390fd5b5f73ffffffffffffffffffffffffffffffffffffffff168273ffffffffffffffffffffffffffffffffffffffff16036127e157816040517f5b08ba180000000000000000000000000000000000000000000000000000000081526004016127d891906139ca565b60405180910390fd5b8060055f8573ffffffffffffffffffffffffffffffffffffffff1673ffffffffffffffffffffffffffffffffffffffff1681526020019081526020015f205f8473ffffffffffffffffffffffffffffffffffffffff1673ffffffffffffffffffffffffffffffffffffffff1681526020019081526020015f205f6101000a81548160ff0219169083151502179055508173ffffffffffffffffffffffffffffffffffffffff168373ffffffffffffffffffffffffffffffffffffffff167f17307eab39ab6107e8899845ad3d59bd9653f200f220920489ca2b5937696c31836040516128cd9190613884565b60405180910390a3505050565b5f600b5f8481526020019081526020015f2090505f816007015490505f81036129045750506129f6565b5f60085f9054906101000a900473ffffffffffffffffffffffffffffffffffffffff1673ffffffffffffffffffffffffffffffffffffffff16634e9df76c866040518263ffffffff1660e01b815260040161295f9190613a5a565b602060405180830381865afa15801561297a573d5f5f3e3d5ffd5b505050506040513d601f19601f8201168201806040525081019061299e9190614964565b90508184826129ad9190614aa2565b11156129f25784826040517fbfff5aa80000000000000000000000000000000000000000000000000000000081526004016129e9929190614357565b60405180910390fd5b5050505b5050565b5f8373ffffffffffffffffffffffffffffffffffffffff163b1115612b9f578273ffffffffffffffffffffffffffffffffffffffff1663150b7a02868685856040518563ffffffff1660e01b8152600401612a589493929190614b27565b6020604051808303815f875af1925050508015612a9357506040513d601f19601f82011682018060405250810190612a909190614b85565b60015b612b14573d805f8114612ac1576040519150601f19603f3d011682016040523d82523d5f602084013e612ac6565b606091505b505f815103612b0c57836040517f64a0ae92000000000000000000000000000000000000000000000000000000008152600401612b0391906139ca565b60405180910390fd5b805160208201fd5b63150b7a0260e01b7bffffffffffffffffffffffffffffffffffffffffffffffffffffffff1916817bffffffffffffffffffffffffffffffffffffffffffffffffffffffff191614612b9d57836040517f64a0ae92000000000000000000000000000000000000000000000000000000008152600401612b9491906139ca565b60405180910390fd5b505b5050505050565b606060405180602001604052805f815250905090565b606060065f8381526020019081526020015f208054612bda9061428a565b80601f0160208091040260200160405190810160405280929190818152602001828054612c069061428a565b8015612c515780601f10612c2857610100808354040283529160200191612c51565b820191905f5260205f20905b815481529060010190602001808311612c3457829003601f168201915b50505050509050919050565b6060612c6882612059565b505f612c72612ba6565b90505f815111612c905760405180602001604052805f815250612cbb565b80612c9a8461322d565b604051602001612cab929190614a58565b6040516020818303038152906040525b915050919050565b5f634906490660e01b7bffffffffffffffffffffffffffffffffffffffffffffffffffffffff1916827bffffffffffffffffffffffffffffffffffffffffffffffffffffffff19161480612d1c5750612d1b826132f7565b5b9050919050565b5f60025f8381526020019081526020015f205f9054906101000a900473ffffffffffffffffffffffffffffffffffffffff169050919050565b8080612d9457505f73ffffffffffffffffffffffffffffffffffffffff168273ffffffffffffffffffffffffffffffffffffffff1614155b15612ec6575f612da384612059565b90505f73ffffffffffffffffffffffffffffffffffffffff168373ffffffffffffffffffffffffffffffffffffffff1614158015612e0d57508273ffffffffffffffffffffffffffffffffffffffff168173ffffffffffffffffffffffffffffffffffffffff1614155b8015612e205750612e1e8184611f52565b155b15612e6257826040517fa9fbf51f000000000000000000000000000000000000000000000000000000008152600401612e5991906139ca565b60405180910390fd5b8115612ec457838573ffffffffffffffffffffffffffffffffffffffff168273ffffffffffffffffffffffffffffffffffffffff167f8c5be1e5ebec7d5bd14f71427d1e84f3dd0314c0f7b2291e5b200ac8c7c3b92560405160405180910390a45b505b8360045f8581526020019081526020015f205f6101000a81548173ffffffffffffffffffffffffffffffffffffffff021916908373ffffffffffffffffffffffffffffffffffffffff16021790555050505050565b612f25828261192a565b612f685780826040517fe2517d3f000000000000000000000000000000000000000000000000000000008152600401612f5f929190614bb0565b60405180910390fd5b5050565b612f778383836133d8565b61302a575f73ffffffffffffffffffffffffffffffffffffffff168373ffffffffffffffffffffffffffffffffffffffff1603612feb57806040517f7e273289000000000000000000000000000000000000000000000000000000008152600401612fe29190613a5a565b60405180910390fd5b81816040517f177e802f000000000000000000000000000000000000000000000000000000008152600401613021929190614bd7565b60405180910390fd5b505050565b613037613498565b1561306e576040517f3ee5aeb500000000000000000000000000000000000000000000000000000000815260040160405180910390fd5b565b5f7f9b779b17422d0df92223018b32b4d1fa46e071723d6817e2486d003becc55f005f1b905090565b5f819050919050565b5f73ffffffffffffffffffffffffffffffffffffffff168273ffffffffffffffffffffffffffffffffffffffff1603613112575f6040517f64a0ae9200000000000000000000000000000000000000000000000000000000815260040161310991906139ca565b60405180910390fd5b5f61311e83835f612145565b90505f73ffffffffffffffffffffffffffffffffffffffff168173ffffffffffffffffffffffffffffffffffffffff160361319057816040517f7e2732890000000000000000000000000000000000000000000000000000000081526004016131879190613a5a565b60405180910390fd5b8373ffffffffffffffffffffffffffffffffffffffff168173ffffffffffffffffffffffffffffffffffffffff1614613204578382826040517f64283d7b0000000000000000000000000000000000000000000000000000000081526004016131fb93929190614322565b60405180910390fd5b50505050565b61321483836134b4565b61322861321f612118565b5f8585856129fa565b505050565b60605f600161323b846135a7565b0190505f8167ffffffffffffffff8111156132595761325861407b565b5b6040519080825280601f01601f19166020018201604052801561328b5781602001600182028036833780820191505090505b5090505f82602083010190505b6001156132ec578080600190039150507f3031323334353637383961626364656600000000000000000000000000000000600a86061a8153600a85816132e1576132e0614454565b5b0494505f8503613298575b819350505050919050565b5f7f80ac58cd000000000000000000000000000000000000000000000000000000007bffffffffffffffffffffffffffffffffffffffffffffffffffffffff1916827bffffffffffffffffffffffffffffffffffffffffffffffffffffffff191614806133c157507f5b5e139f000000000000000000000000000000000000000000000000000000007bffffffffffffffffffffffffffffffffffffffffffffffffffffffff1916827bffffffffffffffffffffffffffffffffffffffffffffffffffffffff1916145b806133d157506133d0826136f8565b5b9050919050565b5f5f73ffffffffffffffffffffffffffffffffffffffff168373ffffffffffffffffffffffffffffffffffffffff161415801561348f57508273ffffffffffffffffffffffffffffffffffffffff168473ffffffffffffffffffffffffffffffffffffffff161480613450575061344f8484611f52565b5b8061348e57508273ffffffffffffffffffffffffffffffffffffffff16613476836120df565b73ffffffffffffffffffffffffffffffffffffffff16145b5b90509392505050565b5f60026134ab6134a6613070565b613099565b5f015414905090565b5f73ffffffffffffffffffffffffffffffffffffffff168273ffffffffffffffffffffffffffffffffffffffff1603613524575f6040517f64a0ae9200000000000000000000000000000000000000000000000000000000815260040161351b91906139ca565b60405180910390fd5b5f61353083835f612145565b90505f73ffffffffffffffffffffffffffffffffffffffff168173ffffffffffffffffffffffffffffffffffffffff16146135a2575f6040517f73c6ac6e00000000000000000000000000000000000000000000000000000000815260040161359991906139ca565b60405180910390fd5b505050565b5f5f5f90507a184f03e93ff9f4daa797ed6e38ed64bf6a1f0100000000000000008310613603577a184f03e93ff9f4daa797ed6e38ed64bf6a1f01000000000000000083816135f9576135f8614454565b5b0492506040810190505b6d04ee2d6d415b85acef81000000008310613640576d04ee2d6d415b85acef8100000000838161363657613635614454565b5b0492506020810190505b662386f26fc10000831061366f57662386f26fc10000838161366557613664614454565b5b0492506010810190505b6305f5e1008310613698576305f5e100838161368e5761368d614454565b5b0492506008810190505b61271083106136bd5761271083816136b3576136b2614454565b5b0492506004810190505b606483106136e057606483816136d6576136d5614454565b5b0492506002810190505b600a83106136ef576001810190505b80915050919050565b5f7f01ffc9a7000000000000000000000000000000000000000000000000000000007bffffffffffffffffffffffffffffffffffffffffffffffffffffffff1916827bffffffffffffffffffffffffffffffffffffffffffffffffffffffff1916149050919050565b6040518061012001604052805f73ffffffffffffffffffffffffffffffffffffffff1681526020015f81526020015f60058111156137a2576137a1613bd0565b5b8152602001606081526020015f67ffffffffffffffff1681526020015f81526020015f81526020015f81526020015f151581525090565b5f604051905090565b5f5ffd5b5f5ffd5b5f7fffffffff0000000000000000000000000000000000000000000000000000000082169050919050565b61381e816137ea565b8114613828575f5ffd5b50565b5f8135905061383981613815565b92915050565b5f60208284031215613854576138536137e2565b5b5f6138618482850161382b565b91505092915050565b5f8115159050919050565b61387e8161386a565b82525050565b5f6020820190506138975f830184613875565b92915050565b5f81519050919050565b5f82825260208201905092915050565b8281835e5f83830152505050565b5f601f19601f8301169050919050565b5f6138df8261389d565b6138e981856138a7565b93506138f98185602086016138b7565b613902816138c5565b840191505092915050565b5f6020820190508181035f83015261392581846138d5565b905092915050565b5f819050919050565b61393f8161392d565b8114613949575f5ffd5b50565b5f8135905061395a81613936565b92915050565b5f60208284031215613975576139746137e2565b5b5f6139828482850161394c565b91505092915050565b5f73ffffffffffffffffffffffffffffffffffffffff82169050919050565b5f6139b48261398b565b9050919050565b6139c4816139aa565b82525050565b5f6020820190506139dd5f8301846139bb565b92915050565b6139ec816139aa565b81146139f6575f5ffd5b50565b5f81359050613a07816139e3565b92915050565b5f5f60408385031215613a2357613a226137e2565b5b5f613a30858286016139f9565b9250506020613a418582860161394c565b9150509250929050565b613a548161392d565b82525050565b5f602082019050613a6d5f830184613a4b565b92915050565b5f5f5f60608486031215613a8a57613a896137e2565b5b5f613a97868287016139f9565b9350506020613aa8868287016139f9565b9250506040613ab98682870161394c565b9150509250925092565b5f819050919050565b613ad581613ac3565b8114613adf575f5ffd5b50565b5f81359050613af081613acc565b92915050565b5f60208284031215613b0b57613b0a6137e2565b5b5f613b1884828501613ae2565b91505092915050565b613b2a81613ac3565b82525050565b5f602082019050613b435f830184613b21565b92915050565b5f60208284031215613b5e57613b5d6137e2565b5b5f613b6b848285016139f9565b91505092915050565b5f5f60408385031215613b8a57613b896137e2565b5b5f613b9785828601613ae2565b9250506020613ba8858286016139f9565b9150509250929050565b613bbb816139aa565b82525050565b613bca81613ac3565b82525050565b7f4e487b71000000000000000000000000000000000000000000000000000000005f52602160045260245ffd5b60068110613c0e57613c0d613bd0565b5b50565b5f819050613c1e82613bfd565b919050565b5f613c2d82613c11565b9050919050565b613c3d81613c23565b82525050565b5f82825260208201905092915050565b5f613c5d8261389d565b613c678185613c43565b9350613c778185602086016138b7565b613c80816138c5565b840191505092915050565b5f67ffffffffffffffff82169050919050565b613ca781613c8b565b82525050565b613cb68161392d565b82525050565b613cc58161386a565b82525050565b5f61012083015f830151613ce15f860182613bb2565b506020830151613cf46020860182613bc1565b506040830151613d076040860182613c34565b5060608301518482036060860152613d1f8282613c53565b9150506080830151613d346080860182613c9e565b5060a0830151613d4760a0860182613cad565b5060c0830151613d5a60c0860182613cad565b5060e0830151613d6d60e0860182613cad565b50610100830151613d82610100860182613cbc565b508091505092915050565b5f6020820190508181035f830152613da58184613ccb565b905092915050565b5f5f60408385031215613dc357613dc26137e2565b5b5f613dd08582860161394c565b9250506020613de18582860161394c565b9150509250929050565b5f5f5f60608486031215613e0257613e016137e2565b5b5f613e0f8682870161394c565b9350506020613e20868287016139f9565b9250506040613e318682870161394c565b9150509250925092565b5f5ffd5b5f5ffd5b5f5ffd5b5f5f83601f840112613e5c57613e5b613e3b565b5b8235905067ffffffffffffffff811115613e7957613e78613e3f565b5b602083019150836001820283011115613e9557613e94613e43565b5b9250929050565b60068110613ea8575f5ffd5b50565b5f81359050613eb981613e9c565b92915050565b5f5f5f5f5f5f5f5f5f60e08a8c031215613edc57613edb6137e2565b5b5f8a013567ffffffffffffffff811115613ef957613ef86137e6565b5b613f058c828d01613e47565b99509950506020613f188c828d01613ae2565b9750506040613f298c828d01613eab565b96505060608a013567ffffffffffffffff811115613f4a57613f496137e6565b5b613f568c828d01613e47565b95509550506080613f698c828d0161394c565b93505060a0613f7a8c828d0161394c565b92505060c0613f8b8c828d0161394c565b9150509295985092959850929598565b5f819050919050565b5f613fbe613fb9613fb48461398b565b613f9b565b61398b565b9050919050565b5f613fcf82613fa4565b9050919050565b5f613fe082613fc5565b9050919050565b613ff081613fd6565b82525050565b5f6020820190506140095f830184613fe7565b92915050565b6140188161386a565b8114614022575f5ffd5b50565b5f813590506140338161400f565b92915050565b5f5f6040838503121561404f5761404e6137e2565b5b5f61405c858286016139f9565b925050602061406d85828601614025565b9150509250929050565b5f5ffd5b7f4e487b71000000000000000000000000000000000000000000000000000000005f52604160045260245ffd5b6140b1826138c5565b810181811067ffffffffffffffff821117156140d0576140cf61407b565b5b80604052505050565b5f6140e26137d9565b90506140ee82826140a8565b919050565b5f67ffffffffffffffff82111561410d5761410c61407b565b5b614116826138c5565b9050602081019050919050565b828183375f83830152505050565b5f61414361413e846140f3565b6140d9565b90508281526020810184848401111561415f5761415e614077565b5b61416a848285614123565b509392505050565b5f82601f83011261418657614185613e3b565b5b8135614196848260208601614131565b91505092915050565b5f5f5f5f608085870312156141b7576141b66137e2565b5b5f6141c4878288016139f9565b94505060206141d5878288016139f9565b93505060406141e68782880161394c565b925050606085013567ffffffffffffffff811115614207576142066137e6565b5b61421387828801614172565b91505092959194509250565b5f5f60408385031215614235576142346137e2565b5b5f614242858286016139f9565b9250506020614253858286016139f9565b9150509250929050565b7f4e487b71000000000000000000000000000000000000000000000000000000005f52602260045260245ffd5b5f60028204905060018216806142a157607f821691505b6020821081036142b4576142b361425d565b5b50919050565b7f4665652063616e6e6f74206578636565642031302500000000000000000000005f82015250565b5f6142ee6015836138a7565b91506142f9826142ba565b602082019050919050565b5f6020820190508181035f83015261431b816142e2565b9050919050565b5f6060820190506143355f8301866139bb565b6143426020830185613a4b565b61434f60408301846139bb565b949350505050565b5f60408201905061436a5f830185613a4b565b6143776020830184613a4b565b9392505050565b7f416c7265616479206f776e6572000000000000000000000000000000000000005f82015250565b5f6143b2600d836138a7565b91506143bd8261437e565b602082019050919050565b5f6020820190508181035f8301526143df816143a6565b9050919050565b7f4e487b71000000000000000000000000000000000000000000000000000000005f52601160045260245ffd5b5f61441d8261392d565b91506144288361392d565b92508282026144368161392d565b9150828204841483151761444d5761444c6143e6565b5b5092915050565b7f4e487b71000000000000000000000000000000000000000000000000000000005f52601260045260245ffd5b5f61448b8261392d565b91506144968361392d565b9250826144a6576144a5614454565b5b828204905092915050565b5f6144bb8261392d565b91506144c68361392d565b92508282039050818111156144de576144dd6143e6565b5b92915050565b5f81905092915050565b50565b5f6144fc5f836144e4565b9150614507826144ee565b5f82019050919050565b5f61451b826144f1565b9150819050919050565b7f53656c6c6572207061796d656e74206661696c656400000000000000000000005f82015250565b5f6145596015836138a7565b915061456482614525565b602082019050919050565b5f6020820190508181035f8301526145868161454d565b9050919050565b7f526566756e64206661696c6564000000000000000000000000000000000000005f82015250565b5f6145c1600d836138a7565b91506145cc8261458d565b602082019050919050565b5f6020820190508181035f8301526145ee816145b5565b9050919050565b5f6060820190506146085f830186613a4b565b61461560208301856139bb565b6146226040830184613a4b565b949350505050565b5f6146348261392d565b91507fffffffffffffffffffffffffffffffffffffffffffffffffffffffffffffffff8203614666576146656143e6565b5b600182019050919050565b5f819050815f5260205f209050919050565b5f6020601f8301049050919050565b5f82821b905092915050565b5f600883026146cd7fffffffffffffffffffffffffffffffffffffffffffffffffffffffffffffffff82614692565b6146d78683614692565b95508019841693508086168417925050509392505050565b5f6147096147046146ff8461392d565b613f9b565b61392d565b9050919050565b5f819050919050565b614722836146ef565b61473661472e82614710565b84845461469e565b825550505050565b5f5f905090565b61474d61473e565b614758818484614719565b505050565b5b8181101561477b576147705f82614745565b60018101905061475e565b5050565b601f8211156147c05761479181614671565b61479a84614683565b810160208510156147a9578190505b6147bd6147b585614683565b83018261475d565b50505b505050565b5f82821c905092915050565b5f6147e05f19846008026147c5565b1980831691505092915050565b5f6147f883836147d1565b9150826002028217905092915050565b6148118261389d565b67ffffffffffffffff81111561482a5761482961407b565b5b614834825461428a565b61483f82828561477f565b5f60209050601f831160018114614870575f841561485e578287015190505b61486885826147ed565b8655506148cf565b601f19841661487e86614671565b5f5b828110156148a557848901518255600182019150602085019450602081019050614880565b868310156148c257848901516148be601f8916826147d1565b8355505b6001600288020188555050505b505050505050565b6148e081613c23565b82525050565b5f6148f183856138a7565b93506148fe838584614123565b614907836138c5565b840190509392505050565b5f6060820190506149255f830187613b21565b61493260208301866148d7565b81810360408301526149458184866148e6565b905095945050505050565b5f8151905061495e81613936565b92915050565b5f60208284031215614979576149786137e2565b5b5f61498684828501614950565b91505092915050565b7f4f776e6572207061796d656e74206661696c65640000000000000000000000005f82015250565b5f6149c36014836138a7565b91506149ce8261498f565b602082019050919050565b5f6020820190508181035f8301526149f0816149b7565b9050919050565b5f604082019050614a0a5f830185613a4b565b614a176020830184613875565b9392505050565b5f81905092915050565b5f614a328261389d565b614a3c8185614a1e565b9350614a4c8185602086016138b7565b80840191505092915050565b5f614a638285614a28565b9150614a6f8284614a28565b91508190509392505050565b5f604082019050614a8e5f830185613a4b565b614a9b60208301846139bb565b9392505050565b5f614aac8261392d565b9150614ab78361392d565b9250828201905080821115614acf57614ace6143e6565b5b92915050565b5f81519050919050565b5f82825260208201905092915050565b5f614af982614ad5565b614b038185614adf565b9350614b138185602086016138b7565b614b1c816138c5565b840191505092915050565b5f608082019050614b3a5f8301876139bb565b614b4760208301866139bb565b614b546040830185613a4b565b8181036060830152614b668184614aef565b905095945050505050565b5f81519050614b7f81613815565b92915050565b5f60208284031215614b9a57614b996137e2565b5b5f614ba784828501614b71565b91505092915050565b5f604082019050614bc35f8301856139bb565b614bd06020830184613b21565b9392505050565b5f604082019050614bea5f8301856139bb565b614bf76020830184613a4b565b939250505056fea26469706673582212207574a3d21c12f1dc858ceb9be71b98940639cc13f5673dcc129c075870258aed64736f6c634300081c0033",
  "linkReferences": {},
  "deployedLinkReferences": {},
  "immutableReferences": {},
  "inputSourceName": "project/contracts/ERC_721.sol",
  "buildInfoId": "solc-0_8_28-4bd0aa727cd6af9c7b7c99db33fca0917c0d21e3"
}